{"contracts/FundraiserFactory.sol":{"FundraiserFactory":{"abi":[{"anonymous":false,"inputs":[{"indexed":true,"internalType":"contract Fundraiser","name":"fundraiser","type":"address"},{"indexed":true,"internalType":"address","name":"owner","type":"address"}],"name":"FundraiserCreated","type":"event"},{"inputs":[{"internalType":"string","name":"name","type":"string"},{"internalType":"string","name":"url","type":"string"},{"internalType":"string","name":"imageURL","type":"string"},{"internalType":"string","name":"description","type":"string"},{"internalType":"address payable","name":"beneficiary","type":"address"}],"name":"createFundraiser","outputs":[],"stateMutability":"nonpayable","type":"function"},{"inputs":[],"name":"createFundraiserthree","outputs":[],"stateMutability":"nonpayable","type":"function"},{"inputs":[{"internalType":"string","name":"myText","type":"string"}],"name":"createFundraisertwo","outputs":[],"stateMutability":"nonpayable","type":"function"},{"inputs":[{"internalType":"string","name":"name","type":"string"},{"internalType":"string","name":"url","type":"string"},{"internalType":"string","name":"imageURL","type":"string"},{"internalType":"string","name":"description","type":"string"},{"internalType":"address payable","name":"beneficiary","type":"address"}],"name":"createFundraisertwo","outputs":[],"stateMutability":"nonpayable","type":"function"},{"inputs":[{"internalType":"uint256","name":"limit","type":"uint256"},{"internalType":"uint256","name":"offset","type":"uint256"}],"name":"fundraisers","outputs":[{"internalType":"contract Fundraiser[]","name":"coll","type":"address[]"}],"stateMutability":"view","type":"function"},{"inputs":[],"name":"fundraisersCount","outputs":[{"internalType":"uint256","name":"","type":"uint256"}],"stateMutability":"view","type":"function"},{"inputs":[{"internalType":"string","name":"myText","type":"string"}],"name":"set","outputs":[],"stateMutability":"nonpayable","type":"function"},{"inputs":[],"name":"storedData","outputs":[{"internalType":"string","name":"","type":"string"}],"stateMutability":"view","type":"function"}],"evm":{"bytecode":{"linkReferences":{},"object":"608060405234801561001057600080fd5b50612645806100206000396000f3fe60806040523480156200001157600080fd5b5060043610620000945760003560e01c8063704914f81162000063578063704914f8146200011b5780637f4dc6b014620001515780639d3b43551462000171578063f720cf7314620001935762000094565b80630d8b3769146200009957806311d752ad14620000b95780632a1afcd914620000d95780634ed3885e14620000fb575b600080fd5b620000b76004803603810190620000b19190620006b0565b6200019f565b005b620000d76004803603810190620000d1919062000766565b620001b4565b005b620000e3620002c0565b604051620000f29190620008f3565b60405180910390f35b620001196004803603810190620001139190620006b0565b62000356565b005b62000139600480360381019062000133919062000952565b6200036b565b60405162000148919062000ac1565b60405180910390f35b6200016f600480360381019062000169919062000766565b62000517565b005b6200017b6200051e565b6040516200018a919062000af6565b60405180910390f35b6200019d6200052a565b005b8060019081620001b0919062000d3f565b5050565b6000858585858533604051620001ca906200052c565b620001db9695949392919062000e5c565b604051809103906000f080158015620001f8573d6000803e3d6000fd5b5090506000819080600181540180825580915050600190039060005260206000200160009091909190916101000a81548173ffffffffffffffffffffffffffffffffffffffff021916908373ffffffffffffffffffffffffffffffffffffffff1602179055503373ffffffffffffffffffffffffffffffffffffffff168173ffffffffffffffffffffffffffffffffffffffff167fa2398daac0c8053a1e3c0280916c2ec6bc884f0959c27e639a4db829b7eabfb160405160405180910390a3505050505050565b60018054620002cf9062000b42565b80601f0160208091040260200160405190810160405280929190818152602001828054620002fd9062000b42565b80156200034e5780601f1062000322576101008083540402835291602001916200034e565b820191906000526020600020905b8154815290600101906020018083116200033057829003601f168201915b505050505081565b806001908162000367919062000d3f565b5050565b6060620003776200051e565b821115620003bc576040517f08c379a0000000000000000000000000000000000000000000000000000000008152600401620003b39062000f35565b60405180910390fd5b600082620003c96200051e565b620003d5919062000f86565b9050838110620003e65783620003e8565b805b905060148110620003fb576014620003fd565b805b90508067ffffffffffffffff8111156200041c576200041b62000569565b5b6040519080825280602002602001820160405280156200044b5781602001602082028036833780820191505090505b50915060005b818110156200050f57600081856200046a919062000fc1565b815481106200047e576200047d62000ffc565b5b9060005260206000200160009054906101000a900473ffffffffffffffffffffffffffffffffffffffff16838281518110620004bf57620004be62000ffc565b5b602002602001019073ffffffffffffffffffffffffffffffffffffffff16908173ffffffffffffffffffffffffffffffffffffffff1681525050808062000506906200102b565b91505062000451565b505092915050565b5050505050565b60008080549050905090565b565b611597806200107983390190565b6000604051905090565b600080fd5b600080fd5b600080fd5b600080fd5b6000601f19601f8301169050919050565b7f4e487b7100000000000000000000000000000000000000000000000000000000600052604160045260246000fd5b620005a38262000558565b810181811067ffffffffffffffff82111715620005c557620005c462000569565b5b80604052505050565b6000620005da6200053a565b9050620005e8828262000598565b919050565b600067ffffffffffffffff8211156200060b576200060a62000569565b5b620006168262000558565b9050602081019050919050565b82818337600083830152505050565b6000620006496200064384620005ed565b620005ce565b90508281526020810184848401111562000668576200066762000553565b5b6200067584828562000623565b509392505050565b600082601f8301126200069557620006946200054e565b5b8135620006a784826020860162000632565b91505092915050565b600060208284031215620006c957620006c862000544565b5b600082013567ffffffffffffffff811115620006ea57620006e962000549565b5b620006f8848285016200067d565b91505092915050565b600073ffffffffffffffffffffffffffffffffffffffff82169050919050565b60006200072e8262000701565b9050919050565b620007408162000721565b81146200074c57600080fd5b50565b600081359050620007608162000735565b92915050565b600080600080600060a0868803121562000785576200078462000544565b5b600086013567ffffffffffffffff811115620007a657620007a562000549565b5b620007b4888289016200067d565b955050602086013567ffffffffffffffff811115620007d857620007d762000549565b5b620007e6888289016200067d565b945050604086013567ffffffffffffffff8111156200080a576200080962000549565b5b62000818888289016200067d565b935050606086013567ffffffffffffffff8111156200083c576200083b62000549565b5b6200084a888289016200067d565b92505060806200085d888289016200074f565b9150509295509295909350565b600081519050919050565b600082825260208201905092915050565b60005b83811015620008a657808201518184015260208101905062000889565b60008484015250505050565b6000620008bf826200086a565b620008cb818562000875565b9350620008dd81856020860162000886565b620008e88162000558565b840191505092915050565b600060208201905081810360008301526200090f8184620008b2565b905092915050565b6000819050919050565b6200092c8162000917565b81146200093857600080fd5b50565b6000813590506200094c8162000921565b92915050565b600080604083850312156200096c576200096b62000544565b5b60006200097c858286016200093b565b92505060206200098f858286016200093b565b9150509250929050565b600081519050919050565b600082825260208201905092915050565b6000819050602082019050919050565b6000819050919050565b6000620009f0620009ea620009e48462000701565b620009c5565b62000701565b9050919050565b600062000a0482620009cf565b9050919050565b600062000a1882620009f7565b9050919050565b62000a2a8162000a0b565b82525050565b600062000a3e838362000a1f565b60208301905092915050565b6000602082019050919050565b600062000a648262000999565b62000a708185620009a4565b935062000a7d83620009b5565b8060005b8381101562000ab457815162000a98888262000a30565b975062000aa58362000a4a565b92505060018101905062000a81565b5085935050505092915050565b6000602082019050818103600083015262000add818462000a57565b905092915050565b62000af08162000917565b82525050565b600060208201905062000b0d600083018462000ae5565b92915050565b7f4e487b7100000000000000000000000000000000000000000000000000000000600052602260045260246000fd5b6000600282049050600182168062000b5b57607f821691505b60208210810362000b715762000b7062000b13565b5b50919050565b60008190508160005260206000209050919050565b60006020601f8301049050919050565b600082821b905092915050565b60006008830262000bdb7fffffffffffffffffffffffffffffffffffffffffffffffffffffffffffffffff8262000b9c565b62000be7868362000b9c565b95508019841693508086168417925050509392505050565b600062000c2062000c1a62000c148462000917565b620009c5565b62000917565b9050919050565b6000819050919050565b62000c3c8362000bff565b62000c5462000c4b8262000c27565b84845462000ba9565b825550505050565b600090565b62000c6b62000c5c565b62000c7881848462000c31565b505050565b5b8181101562000ca05762000c9460008262000c61565b60018101905062000c7e565b5050565b601f82111562000cef5762000cb98162000b77565b62000cc48462000b8c565b8101602085101562000cd4578190505b62000cec62000ce38562000b8c565b83018262000c7d565b50505b505050565b600082821c905092915050565b600062000d146000198460080262000cf4565b1980831691505092915050565b600062000d2f838362000d01565b9150826002028217905092915050565b62000d4a826200086a565b67ffffffffffffffff81111562000d665762000d6562000569565b5b62000d72825462000b42565b62000d7f82828562000ca4565b600060209050601f83116001811462000db7576000841562000da2578287015190505b62000dae858262000d21565b86555062000e1e565b601f19841662000dc78662000b77565b60005b8281101562000df15784890151825560018201915060208501945060208101905062000dca565b8683101562000e11578489015162000e0d601f89168262000d01565b8355505b6001600288020188555050505b505050505050565b62000e318162000721565b82525050565b600062000e448262000701565b9050919050565b62000e568162000e37565b82525050565b600060c082019050818103600083015262000e788189620008b2565b9050818103602083015262000e8e8188620008b2565b9050818103604083015262000ea48187620008b2565b9050818103606083015262000eba8186620008b2565b905062000ecb608083018562000e26565b62000eda60a083018462000e4b565b979650505050505050565b7f6f6666736574206f7574206f6620626f756e6473000000000000000000000000600082015250565b600062000f1d60148362000875565b915062000f2a8262000ee5565b602082019050919050565b6000602082019050818103600083015262000f508162000f0e565b9050919050565b7f4e487b7100000000000000000000000000000000000000000000000000000000600052601160045260246000fd5b600062000f938262000917565b915062000fa08362000917565b925082820390508181111562000fbb5762000fba62000f57565b5b92915050565b600062000fce8262000917565b915062000fdb8362000917565b925082820190508082111562000ff65762000ff562000f57565b5b92915050565b7f4e487b7100000000000000000000000000000000000000000000000000000000600052603260045260246000fd5b6000620010388262000917565b91507fffffffffffffffffffffffffffffffffffffffffffffffffffffffffffffffff82036200106d576200106c62000f57565b5b60018201905091905056fe60806040523480156200001157600080fd5b50604051620015973803806200159783398181016040528101906200003791906200034a565b8560019081620000489190620006ad565b5084600290816200005a9190620006ad565b5083600390816200006c9190620006ad565b5082600490816200007e9190620006ad565b5081600560006101000a81548173ffffffffffffffffffffffffffffffffffffffff021916908373ffffffffffffffffffffffffffffffffffffffff16021790555080600660006101000a81548173ffffffffffffffffffffffffffffffffffffffff021916908373ffffffffffffffffffffffffffffffffffffffff16021790555050505050505062000794565b6000604051905090565b600080fd5b600080fd5b600080fd5b600080fd5b6000601f19601f8301169050919050565b7f4e487b7100000000000000000000000000000000000000000000000000000000600052604160045260246000fd5b62000176826200012b565b810181811067ffffffffffffffff821117156200019857620001976200013c565b5b80604052505050565b6000620001ad6200010d565b9050620001bb82826200016b565b919050565b600067ffffffffffffffff821115620001de57620001dd6200013c565b5b620001e9826200012b565b9050602081019050919050565b60005b8381101562000216578082015181840152602081019050620001f9565b60008484015250505050565b6000620002396200023384620001c0565b620001a1565b90508281526020810184848401111562000258576200025762000126565b5b62000265848285620001f6565b509392505050565b600082601f83011262000285576200028462000121565b5b81516200029784826020860162000222565b91505092915050565b600073ffffffffffffffffffffffffffffffffffffffff82169050919050565b6000620002cd82620002a0565b9050919050565b620002df81620002c0565b8114620002eb57600080fd5b50565b600081519050620002ff81620002d4565b92915050565b60006200031282620002a0565b9050919050565b620003248162000305565b81146200033057600080fd5b50565b600081519050620003448162000319565b92915050565b60008060008060008060c087890312156200036a576200036962000117565b5b600087015167ffffffffffffffff8111156200038b576200038a6200011c565b5b6200039989828a016200026d565b965050602087015167ffffffffffffffff811115620003bd57620003bc6200011c565b5b620003cb89828a016200026d565b955050604087015167ffffffffffffffff811115620003ef57620003ee6200011c565b5b620003fd89828a016200026d565b945050606087015167ffffffffffffffff8111156200042157620004206200011c565b5b6200042f89828a016200026d565b93505060806200044289828a01620002ee565b92505060a06200045589828a0162000333565b9150509295509295509295565b600081519050919050565b7f4e487b7100000000000000000000000000000000000000000000000000000000600052602260045260246000fd5b60006002820490506001821680620004b557607f821691505b602082108103620004cb57620004ca6200046d565b5b50919050565b60008190508160005260206000209050919050565b60006020601f8301049050919050565b600082821b905092915050565b600060088302620005357fffffffffffffffffffffffffffffffffffffffffffffffffffffffffffffffff82620004f6565b620005418683620004f6565b95508019841693508086168417925050509392505050565b6000819050919050565b6000819050919050565b60006200058e62000588620005828462000559565b62000563565b62000559565b9050919050565b6000819050919050565b620005aa836200056d565b620005c2620005b98262000595565b84845462000503565b825550505050565b600090565b620005d9620005ca565b620005e68184846200059f565b505050565b5b818110156200060e5762000602600082620005cf565b600181019050620005ec565b5050565b601f8211156200065d576200062781620004d1565b6200063284620004e6565b8101602085101562000642578190505b6200065a6200065185620004e6565b830182620005eb565b50505b505050565b600082821c905092915050565b6000620006826000198460080262000662565b1980831691505092915050565b60006200069d83836200066f565b9150826002028217905092915050565b620006b88262000462565b67ffffffffffffffff811115620006d457620006d36200013c565b5b620006e082546200049c565b620006ed82828562000612565b600060209050601f83116001811462000725576000841562000710578287015190505b6200071c85826200068f565b8655506200078c565b601f1984166200073586620004d1565b60005b828110156200075f5784890151825560018201915060208501945060208101905062000738565b868310156200077f57848901516200077b601f8916826200066f565b8355505b6001600288020188555050505b505050505050565b610df380620007a46000396000f3fe6080604052600436106100dc5760003560e01c80633ccfd60b1161007f5780638da5cb5b116100595780638da5cb5b14610259578063b90497e014610284578063de2ed893146102af578063ed88c68e146102da576100dc565b80633ccfd60b146101ec5780635600f04f146102035780637284e4161461022e576100dc565b80631a57f7b4116100bb5780631a57f7b4146101415780631c31f7101461016d5780631f5225951461019657806338af3eed146101c1576100dc565b80625c33e1146100e15780630180b97c146100eb57806306fdde0314610116575b600080fd5b6100e96102e4565b005b3480156100f757600080fd5b50610100610319565b60405161010d919061099c565b60405180910390f35b34801561012257600080fd5b5061012b610362565b6040516101389190610a47565b60405180910390f35b34801561014d57600080fd5b506101566103f0565b604051610164929190610b27565b60405180910390f35b34801561017957600080fd5b50610194600480360381019061018f9190610bc1565b610564565b005b3480156101a257600080fd5b506101ab6105a8565b6040516101b8919061099c565b60405180910390f35b3480156101cd57600080fd5b506101d66105ae565b6040516101e39190610bfd565b60405180910390f35b3480156101f857600080fd5b506102016105d4565b005b34801561020f57600080fd5b5061021861067c565b6040516102259190610a47565b60405180910390f35b34801561023a57600080fd5b5061024361070a565b6040516102509190610a47565b60405180910390f35b34801561026557600080fd5b5061026e610798565b60405161027b9190610c39565b60405180910390f35b34801561029057600080fd5b506102996107be565b6040516102a69190610a47565b60405180910390f35b3480156102bb57600080fd5b506102c461084c565b6040516102d1919061099c565b60405180910390f35b6102e2610852565b005b6102f93460075461096d90919063ffffffff16565b6007819055506008600081548092919061031290610c83565b9190505550565b60008060003373ffffffffffffffffffffffffffffffffffffffff1673ffffffffffffffffffffffffffffffffffffffff16815260200190815260200160002080549050905090565b6001805461036f90610cfa565b80601f016020809104026020016040519081016040528092919081815260200182805461039b90610cfa565b80156103e85780601f106103bd576101008083540402835291602001916103e8565b820191906000526020600020905b8154815290600101906020018083116103cb57829003601f168201915b505050505081565b60608060006103fd610319565b90508067ffffffffffffffff81111561041957610418610d2b565b5b6040519080825280602002602001820160405280156104475781602001602082028036833780820191505090505b5092508067ffffffffffffffff81111561046457610463610d2b565b5b6040519080825280602002602001820160405280156104925781602001602082028036833780820191505090505b50915060005b8181101561055e5760008060003373ffffffffffffffffffffffffffffffffffffffff1673ffffffffffffffffffffffffffffffffffffffff16815260200190815260200160002082815481106104f2576104f1610d5a565b5b90600052602060002090600202019050806000015485838151811061051a57610519610d5a565b5b602002602001018181525050806001015484838151811061053e5761053d610d5a565b5b60200260200101818152505050808061055690610c83565b915050610498565b50509091565b80600560006101000a81548173ffffffffffffffffffffffffffffffffffffffff021916908373ffffffffffffffffffffffffffffffffffffffff16021790555050565b60085481565b600560009054906101000a900473ffffffffffffffffffffffffffffffffffffffff1681565b6000479050600560009054906101000a900473ffffffffffffffffffffffffffffffffffffffff1673ffffffffffffffffffffffffffffffffffffffff166108fc829081150290604051600060405180830381858888f19350505050158015610641573d6000803e3d6000fd5b507f5b6b431d4476a211bb7d41c20d1aab9ae2321deee0d20be3d9fc9b1093fa6e3d81604051610671919061099c565b60405180910390a150565b6002805461068990610cfa565b80601f01602080910402602001604051908101604052809291908181526020018280546106b590610cfa565b80156107025780601f106106d757610100808354040283529160200191610702565b820191906000526020600020905b8154815290600101906020018083116106e557829003601f168201915b505050505081565b6004805461071790610cfa565b80601f016020809104026020016040519081016040528092919081815260200182805461074390610cfa565b80156107905780601f1061076557610100808354040283529160200191610790565b820191906000526020600020905b81548152906001019060200180831161077357829003601f168201915b505050505081565b600660009054906101000a900473ffffffffffffffffffffffffffffffffffffffff1681565b600380546107cb90610cfa565b80601f01602080910402602001604051908101604052809291908181526020018280546107f790610cfa565b80156108445780601f1061081957610100808354040283529160200191610844565b820191906000526020600020905b81548152906001019060200180831161082757829003601f168201915b505050505081565b60075481565b600060405180604001604052803481526020014281525090506000803373ffffffffffffffffffffffffffffffffffffffff1673ffffffffffffffffffffffffffffffffffffffff168152602001908152602001600020819080600181540180825580915050600190039060005260206000209060020201600090919091909150600082015181600001556020820151816001015550506108fe3460075461096d90919063ffffffff16565b6007819055506008600081548092919061091790610c83565b91905055503373ffffffffffffffffffffffffffffffffffffffff167f264f630d9efa0d07053a31163641d9fcc0adafc9d9e76f1c37c2ce3a558d2c5234604051610962919061099c565b60405180910390a250565b6000818361097b9190610d89565b905092915050565b6000819050919050565b61099681610983565b82525050565b60006020820190506109b1600083018461098d565b92915050565b600081519050919050565b600082825260208201905092915050565b60005b838110156109f15780820151818401526020810190506109d6565b60008484015250505050565b6000601f19601f8301169050919050565b6000610a19826109b7565b610a2381856109c2565b9350610a338185602086016109d3565b610a3c816109fd565b840191505092915050565b60006020820190508181036000830152610a618184610a0e565b905092915050565b600081519050919050565b600082825260208201905092915050565b6000819050602082019050919050565b610a9e81610983565b82525050565b6000610ab08383610a95565b60208301905092915050565b6000602082019050919050565b6000610ad482610a69565b610ade8185610a74565b9350610ae983610a85565b8060005b83811015610b1a578151610b018882610aa4565b9750610b0c83610abc565b925050600181019050610aed565b5085935050505092915050565b60006040820190508181036000830152610b418185610ac9565b90508181036020830152610b558184610ac9565b90509392505050565b600080fd5b600073ffffffffffffffffffffffffffffffffffffffff82169050919050565b6000610b8e82610b63565b9050919050565b610b9e81610b83565b8114610ba957600080fd5b50565b600081359050610bbb81610b95565b92915050565b600060208284031215610bd757610bd6610b5e565b5b6000610be584828501610bac565b91505092915050565b610bf781610b83565b82525050565b6000602082019050610c126000830184610bee565b92915050565b6000610c2382610b63565b9050919050565b610c3381610c18565b82525050565b6000602082019050610c4e6000830184610c2a565b92915050565b7f4e487b7100000000000000000000000000000000000000000000000000000000600052601160045260246000fd5b6000610c8e82610983565b91507fffffffffffffffffffffffffffffffffffffffffffffffffffffffffffffffff8203610cc057610cbf610c54565b5b600182019050919050565b7f4e487b7100000000000000000000000000000000000000000000000000000000600052602260045260246000fd5b60006002820490506001821680610d1257607f821691505b602082108103610d2557610d24610ccb565b5b50919050565b7f4e487b7100000000000000000000000000000000000000000000000000000000600052604160045260246000fd5b7f4e487b7100000000000000000000000000000000000000000000000000000000600052603260045260246000fd5b6000610d9482610983565b9150610d9f83610983565b9250828201905080821115610db757610db6610c54565b5b9291505056fea2646970667358221220673d38f0e2801ca4ecb823cbcd2a19d36a5303716fecc45f8e36a5c143770e3364736f6c63430008120033a26469706673582212201d9fed48ce5fb4adc86455979d2e7a6e95a55fc9ee4421687c76beeb0b2856e864736f6c63430008120033","opcodes":"PUSH1 0x80 PUSH1 0x40 MSTORE CALLVALUE DUP1 ISZERO PUSH2 0x10 JUMPI PUSH1 0x0 DUP1 REVERT JUMPDEST POP PUSH2 0x2645 DUP1 PUSH2 0x20 PUSH1 0x0 CODECOPY PUSH1 0x0 RETURN INVALID PUSH1 0x80 PUSH1 0x40 MSTORE CALLVALUE DUP1 ISZERO PUSH3 0x11 JUMPI PUSH1 0x0 DUP1 REVERT JUMPDEST POP PUSH1 0x4 CALLDATASIZE LT PUSH3 0x94 JUMPI PUSH1 0x0 CALLDATALOAD PUSH1 0xE0 SHR DUP1 PUSH4 0x704914F8 GT PUSH3 0x63 JUMPI DUP1 PUSH4 0x704914F8 EQ PUSH3 0x11B JUMPI DUP1 PUSH4 0x7F4DC6B0 EQ PUSH3 0x151 JUMPI DUP1 PUSH4 0x9D3B4355 EQ PUSH3 0x171 JUMPI DUP1 PUSH4 0xF720CF73 EQ PUSH3 0x193 JUMPI PUSH3 0x94 JUMP JUMPDEST DUP1 PUSH4 0xD8B3769 EQ PUSH3 0x99 JUMPI DUP1 PUSH4 0x11D752AD EQ PUSH3 0xB9 JUMPI DUP1 PUSH4 0x2A1AFCD9 EQ PUSH3 0xD9 JUMPI DUP1 PUSH4 0x4ED3885E EQ PUSH3 0xFB JUMPI JUMPDEST PUSH1 0x0 DUP1 REVERT JUMPDEST PUSH3 0xB7 PUSH1 0x4 DUP1 CALLDATASIZE SUB DUP2 ADD SWAP1 PUSH3 0xB1 SWAP2 SWAP1 PUSH3 0x6B0 JUMP JUMPDEST PUSH3 0x19F JUMP JUMPDEST STOP JUMPDEST PUSH3 0xD7 PUSH1 0x4 DUP1 CALLDATASIZE SUB DUP2 ADD SWAP1 PUSH3 0xD1 SWAP2 SWAP1 PUSH3 0x766 JUMP JUMPDEST PUSH3 0x1B4 JUMP JUMPDEST STOP JUMPDEST PUSH3 0xE3 PUSH3 0x2C0 JUMP JUMPDEST PUSH1 0x40 MLOAD PUSH3 0xF2 SWAP2 SWAP1 PUSH3 0x8F3 JUMP JUMPDEST PUSH1 0x40 MLOAD DUP1 SWAP2 SUB SWAP1 RETURN JUMPDEST PUSH3 0x119 PUSH1 0x4 DUP1 CALLDATASIZE SUB DUP2 ADD SWAP1 PUSH3 0x113 SWAP2 SWAP1 PUSH3 0x6B0 JUMP JUMPDEST PUSH3 0x356 JUMP JUMPDEST STOP JUMPDEST PUSH3 0x139 PUSH1 0x4 DUP1 CALLDATASIZE SUB DUP2 ADD SWAP1 PUSH3 0x133 SWAP2 SWAP1 PUSH3 0x952 JUMP JUMPDEST PUSH3 0x36B JUMP JUMPDEST PUSH1 0x40 MLOAD PUSH3 0x148 SWAP2 SWAP1 PUSH3 0xAC1 JUMP JUMPDEST PUSH1 0x40 MLOAD DUP1 SWAP2 SUB SWAP1 RETURN JUMPDEST PUSH3 0x16F PUSH1 0x4 DUP1 CALLDATASIZE SUB DUP2 ADD SWAP1 PUSH3 0x169 SWAP2 SWAP1 PUSH3 0x766 JUMP JUMPDEST PUSH3 0x517 JUMP JUMPDEST STOP JUMPDEST PUSH3 0x17B PUSH3 0x51E JUMP JUMPDEST PUSH1 0x40 MLOAD PUSH3 0x18A SWAP2 SWAP1 PUSH3 0xAF6 JUMP JUMPDEST PUSH1 0x40 MLOAD DUP1 SWAP2 SUB SWAP1 RETURN JUMPDEST PUSH3 0x19D PUSH3 0x52A JUMP JUMPDEST STOP JUMPDEST DUP1 PUSH1 0x1 SWAP1 DUP2 PUSH3 0x1B0 SWAP2 SWAP1 PUSH3 0xD3F JUMP JUMPDEST POP POP JUMP JUMPDEST PUSH1 0x0 DUP6 DUP6 DUP6 DUP6 DUP6 CALLER PUSH1 0x40 MLOAD PUSH3 0x1CA SWAP1 PUSH3 0x52C JUMP JUMPDEST PUSH3 0x1DB SWAP7 SWAP6 SWAP5 SWAP4 SWAP3 SWAP2 SWAP1 PUSH3 0xE5C JUMP JUMPDEST PUSH1 0x40 MLOAD DUP1 SWAP2 SUB SWAP1 PUSH1 0x0 CREATE DUP1 ISZERO DUP1 ISZERO PUSH3 0x1F8 JUMPI RETURNDATASIZE PUSH1 0x0 DUP1 RETURNDATACOPY RETURNDATASIZE PUSH1 0x0 REVERT JUMPDEST POP SWAP1 POP PUSH1 0x0 DUP2 SWAP1 DUP1 PUSH1 0x1 DUP2 SLOAD ADD DUP1 DUP3 SSTORE DUP1 SWAP2 POP POP PUSH1 0x1 SWAP1 SUB SWAP1 PUSH1 0x0 MSTORE PUSH1 0x20 PUSH1 0x0 KECCAK256 ADD PUSH1 0x0 SWAP1 SWAP2 SWAP1 SWAP2 SWAP1 SWAP2 PUSH2 0x100 EXP DUP2 SLOAD DUP2 PUSH20 0xFFFFFFFFFFFFFFFFFFFFFFFFFFFFFFFFFFFFFFFF MUL NOT AND SWAP1 DUP4 PUSH20 0xFFFFFFFFFFFFFFFFFFFFFFFFFFFFFFFFFFFFFFFF AND MUL OR SWAP1 SSTORE POP CALLER PUSH20 0xFFFFFFFFFFFFFFFFFFFFFFFFFFFFFFFFFFFFFFFF AND DUP2 PUSH20 0xFFFFFFFFFFFFFFFFFFFFFFFFFFFFFFFFFFFFFFFF AND PUSH32 0xA2398DAAC0C8053A1E3C0280916C2EC6BC884F0959C27E639A4DB829B7EABFB1 PUSH1 0x40 MLOAD PUSH1 0x40 MLOAD DUP1 SWAP2 SUB SWAP1 LOG3 POP POP POP POP POP POP JUMP JUMPDEST PUSH1 0x1 DUP1 SLOAD PUSH3 0x2CF SWAP1 PUSH3 0xB42 JUMP JUMPDEST DUP1 PUSH1 0x1F ADD PUSH1 0x20 DUP1 SWAP2 DIV MUL PUSH1 0x20 ADD PUSH1 0x40 MLOAD SWAP1 DUP2 ADD PUSH1 0x40 MSTORE DUP1 SWAP3 SWAP2 SWAP1 DUP2 DUP2 MSTORE PUSH1 0x20 ADD DUP3 DUP1 SLOAD PUSH3 0x2FD SWAP1 PUSH3 0xB42 JUMP JUMPDEST DUP1 ISZERO PUSH3 0x34E JUMPI DUP1 PUSH1 0x1F LT PUSH3 0x322 JUMPI PUSH2 0x100 DUP1 DUP4 SLOAD DIV MUL DUP4 MSTORE SWAP2 PUSH1 0x20 ADD SWAP2 PUSH3 0x34E JUMP JUMPDEST DUP3 ADD SWAP2 SWAP1 PUSH1 0x0 MSTORE PUSH1 0x20 PUSH1 0x0 KECCAK256 SWAP1 JUMPDEST DUP2 SLOAD DUP2 MSTORE SWAP1 PUSH1 0x1 ADD SWAP1 PUSH1 0x20 ADD DUP1 DUP4 GT PUSH3 0x330 JUMPI DUP3 SWAP1 SUB PUSH1 0x1F AND DUP3 ADD SWAP2 JUMPDEST POP POP POP POP POP DUP2 JUMP JUMPDEST DUP1 PUSH1 0x1 SWAP1 DUP2 PUSH3 0x367 SWAP2 SWAP1 PUSH3 0xD3F JUMP JUMPDEST POP POP JUMP JUMPDEST PUSH1 0x60 PUSH3 0x377 PUSH3 0x51E JUMP JUMPDEST DUP3 GT ISZERO PUSH3 0x3BC JUMPI PUSH1 0x40 MLOAD PUSH32 0x8C379A000000000000000000000000000000000000000000000000000000000 DUP2 MSTORE PUSH1 0x4 ADD PUSH3 0x3B3 SWAP1 PUSH3 0xF35 JUMP JUMPDEST PUSH1 0x40 MLOAD DUP1 SWAP2 SUB SWAP1 REVERT JUMPDEST PUSH1 0x0 DUP3 PUSH3 0x3C9 PUSH3 0x51E JUMP JUMPDEST PUSH3 0x3D5 SWAP2 SWAP1 PUSH3 0xF86 JUMP JUMPDEST SWAP1 POP DUP4 DUP2 LT PUSH3 0x3E6 JUMPI DUP4 PUSH3 0x3E8 JUMP JUMPDEST DUP1 JUMPDEST SWAP1 POP PUSH1 0x14 DUP2 LT PUSH3 0x3FB JUMPI PUSH1 0x14 PUSH3 0x3FD JUMP JUMPDEST DUP1 JUMPDEST SWAP1 POP DUP1 PUSH8 0xFFFFFFFFFFFFFFFF DUP2 GT ISZERO PUSH3 0x41C JUMPI PUSH3 0x41B PUSH3 0x569 JUMP JUMPDEST JUMPDEST PUSH1 0x40 MLOAD SWAP1 DUP1 DUP3 MSTORE DUP1 PUSH1 0x20 MUL PUSH1 0x20 ADD DUP3 ADD PUSH1 0x40 MSTORE DUP1 ISZERO PUSH3 0x44B JUMPI DUP2 PUSH1 0x20 ADD PUSH1 0x20 DUP3 MUL DUP1 CALLDATASIZE DUP4 CALLDATACOPY DUP1 DUP3 ADD SWAP2 POP POP SWAP1 POP JUMPDEST POP SWAP2 POP PUSH1 0x0 JUMPDEST DUP2 DUP2 LT ISZERO PUSH3 0x50F JUMPI PUSH1 0x0 DUP2 DUP6 PUSH3 0x46A SWAP2 SWAP1 PUSH3 0xFC1 JUMP JUMPDEST DUP2 SLOAD DUP2 LT PUSH3 0x47E JUMPI PUSH3 0x47D PUSH3 0xFFC JUMP JUMPDEST JUMPDEST SWAP1 PUSH1 0x0 MSTORE PUSH1 0x20 PUSH1 0x0 KECCAK256 ADD PUSH1 0x0 SWAP1 SLOAD SWAP1 PUSH2 0x100 EXP SWAP1 DIV PUSH20 0xFFFFFFFFFFFFFFFFFFFFFFFFFFFFFFFFFFFFFFFF AND DUP4 DUP3 DUP2 MLOAD DUP2 LT PUSH3 0x4BF JUMPI PUSH3 0x4BE PUSH3 0xFFC JUMP JUMPDEST JUMPDEST PUSH1 0x20 MUL PUSH1 0x20 ADD ADD SWAP1 PUSH20 0xFFFFFFFFFFFFFFFFFFFFFFFFFFFFFFFFFFFFFFFF AND SWAP1 DUP2 PUSH20 0xFFFFFFFFFFFFFFFFFFFFFFFFFFFFFFFFFFFFFFFF AND DUP2 MSTORE POP POP DUP1 DUP1 PUSH3 0x506 SWAP1 PUSH3 0x102B JUMP JUMPDEST SWAP2 POP POP PUSH3 0x451 JUMP JUMPDEST POP POP SWAP3 SWAP2 POP POP JUMP JUMPDEST POP POP POP POP POP JUMP JUMPDEST PUSH1 0x0 DUP1 DUP1 SLOAD SWAP1 POP SWAP1 POP SWAP1 JUMP JUMPDEST JUMP JUMPDEST PUSH2 0x1597 DUP1 PUSH3 0x1079 DUP4 CODECOPY ADD SWAP1 JUMP JUMPDEST PUSH1 0x0 PUSH1 0x40 MLOAD SWAP1 POP SWAP1 JUMP JUMPDEST PUSH1 0x0 DUP1 REVERT JUMPDEST PUSH1 0x0 DUP1 REVERT JUMPDEST PUSH1 0x0 DUP1 REVERT JUMPDEST PUSH1 0x0 DUP1 REVERT JUMPDEST PUSH1 0x0 PUSH1 0x1F NOT PUSH1 0x1F DUP4 ADD AND SWAP1 POP SWAP2 SWAP1 POP JUMP JUMPDEST PUSH32 0x4E487B7100000000000000000000000000000000000000000000000000000000 PUSH1 0x0 MSTORE PUSH1 0x41 PUSH1 0x4 MSTORE PUSH1 0x24 PUSH1 0x0 REVERT JUMPDEST PUSH3 0x5A3 DUP3 PUSH3 0x558 JUMP JUMPDEST DUP2 ADD DUP2 DUP2 LT PUSH8 0xFFFFFFFFFFFFFFFF DUP3 GT OR ISZERO PUSH3 0x5C5 JUMPI PUSH3 0x5C4 PUSH3 0x569 JUMP JUMPDEST JUMPDEST DUP1 PUSH1 0x40 MSTORE POP POP POP JUMP JUMPDEST PUSH1 0x0 PUSH3 0x5DA PUSH3 0x53A JUMP JUMPDEST SWAP1 POP PUSH3 0x5E8 DUP3 DUP3 PUSH3 0x598 JUMP JUMPDEST SWAP2 SWAP1 POP JUMP JUMPDEST PUSH1 0x0 PUSH8 0xFFFFFFFFFFFFFFFF DUP3 GT ISZERO PUSH3 0x60B JUMPI PUSH3 0x60A PUSH3 0x569 JUMP JUMPDEST JUMPDEST PUSH3 0x616 DUP3 PUSH3 0x558 JUMP JUMPDEST SWAP1 POP PUSH1 0x20 DUP2 ADD SWAP1 POP SWAP2 SWAP1 POP JUMP JUMPDEST DUP3 DUP2 DUP4 CALLDATACOPY PUSH1 0x0 DUP4 DUP4 ADD MSTORE POP POP POP JUMP JUMPDEST PUSH1 0x0 PUSH3 0x649 PUSH3 0x643 DUP5 PUSH3 0x5ED JUMP JUMPDEST PUSH3 0x5CE JUMP JUMPDEST SWAP1 POP DUP3 DUP2 MSTORE PUSH1 0x20 DUP2 ADD DUP5 DUP5 DUP5 ADD GT ISZERO PUSH3 0x668 JUMPI PUSH3 0x667 PUSH3 0x553 JUMP JUMPDEST JUMPDEST PUSH3 0x675 DUP5 DUP3 DUP6 PUSH3 0x623 JUMP JUMPDEST POP SWAP4 SWAP3 POP POP POP JUMP JUMPDEST PUSH1 0x0 DUP3 PUSH1 0x1F DUP4 ADD SLT PUSH3 0x695 JUMPI PUSH3 0x694 PUSH3 0x54E JUMP JUMPDEST JUMPDEST DUP2 CALLDATALOAD PUSH3 0x6A7 DUP5 DUP3 PUSH1 0x20 DUP7 ADD PUSH3 0x632 JUMP JUMPDEST SWAP2 POP POP SWAP3 SWAP2 POP POP JUMP JUMPDEST PUSH1 0x0 PUSH1 0x20 DUP3 DUP5 SUB SLT ISZERO PUSH3 0x6C9 JUMPI PUSH3 0x6C8 PUSH3 0x544 JUMP JUMPDEST JUMPDEST PUSH1 0x0 DUP3 ADD CALLDATALOAD PUSH8 0xFFFFFFFFFFFFFFFF DUP2 GT ISZERO PUSH3 0x6EA JUMPI PUSH3 0x6E9 PUSH3 0x549 JUMP JUMPDEST JUMPDEST PUSH3 0x6F8 DUP5 DUP3 DUP6 ADD PUSH3 0x67D JUMP JUMPDEST SWAP2 POP POP SWAP3 SWAP2 POP POP JUMP JUMPDEST PUSH1 0x0 PUSH20 0xFFFFFFFFFFFFFFFFFFFFFFFFFFFFFFFFFFFFFFFF DUP3 AND SWAP1 POP SWAP2 SWAP1 POP JUMP JUMPDEST PUSH1 0x0 PUSH3 0x72E DUP3 PUSH3 0x701 JUMP JUMPDEST SWAP1 POP SWAP2 SWAP1 POP JUMP JUMPDEST PUSH3 0x740 DUP2 PUSH3 0x721 JUMP JUMPDEST DUP2 EQ PUSH3 0x74C JUMPI PUSH1 0x0 DUP1 REVERT JUMPDEST POP JUMP JUMPDEST PUSH1 0x0 DUP2 CALLDATALOAD SWAP1 POP PUSH3 0x760 DUP2 PUSH3 0x735 JUMP JUMPDEST SWAP3 SWAP2 POP POP JUMP JUMPDEST PUSH1 0x0 DUP1 PUSH1 0x0 DUP1 PUSH1 0x0 PUSH1 0xA0 DUP7 DUP9 SUB SLT ISZERO PUSH3 0x785 JUMPI PUSH3 0x784 PUSH3 0x544 JUMP JUMPDEST JUMPDEST PUSH1 0x0 DUP7 ADD CALLDATALOAD PUSH8 0xFFFFFFFFFFFFFFFF DUP2 GT ISZERO PUSH3 0x7A6 JUMPI PUSH3 0x7A5 PUSH3 0x549 JUMP JUMPDEST JUMPDEST PUSH3 0x7B4 DUP9 DUP3 DUP10 ADD PUSH3 0x67D JUMP JUMPDEST SWAP6 POP POP PUSH1 0x20 DUP7 ADD CALLDATALOAD PUSH8 0xFFFFFFFFFFFFFFFF DUP2 GT ISZERO PUSH3 0x7D8 JUMPI PUSH3 0x7D7 PUSH3 0x549 JUMP JUMPDEST JUMPDEST PUSH3 0x7E6 DUP9 DUP3 DUP10 ADD PUSH3 0x67D JUMP JUMPDEST SWAP5 POP POP PUSH1 0x40 DUP7 ADD CALLDATALOAD PUSH8 0xFFFFFFFFFFFFFFFF DUP2 GT ISZERO PUSH3 0x80A JUMPI PUSH3 0x809 PUSH3 0x549 JUMP JUMPDEST JUMPDEST PUSH3 0x818 DUP9 DUP3 DUP10 ADD PUSH3 0x67D JUMP JUMPDEST SWAP4 POP POP PUSH1 0x60 DUP7 ADD CALLDATALOAD PUSH8 0xFFFFFFFFFFFFFFFF DUP2 GT ISZERO PUSH3 0x83C JUMPI PUSH3 0x83B PUSH3 0x549 JUMP JUMPDEST JUMPDEST PUSH3 0x84A DUP9 DUP3 DUP10 ADD PUSH3 0x67D JUMP JUMPDEST SWAP3 POP POP PUSH1 0x80 PUSH3 0x85D DUP9 DUP3 DUP10 ADD PUSH3 0x74F JUMP JUMPDEST SWAP2 POP POP SWAP3 SWAP6 POP SWAP3 SWAP6 SWAP1 SWAP4 POP JUMP JUMPDEST PUSH1 0x0 DUP2 MLOAD SWAP1 POP SWAP2 SWAP1 POP JUMP JUMPDEST PUSH1 0x0 DUP3 DUP3 MSTORE PUSH1 0x20 DUP3 ADD SWAP1 POP SWAP3 SWAP2 POP POP JUMP JUMPDEST PUSH1 0x0 JUMPDEST DUP4 DUP2 LT ISZERO PUSH3 0x8A6 JUMPI DUP1 DUP3 ADD MLOAD DUP2 DUP5 ADD MSTORE PUSH1 0x20 DUP2 ADD SWAP1 POP PUSH3 0x889 JUMP JUMPDEST PUSH1 0x0 DUP5 DUP5 ADD MSTORE POP POP POP POP JUMP JUMPDEST PUSH1 0x0 PUSH3 0x8BF DUP3 PUSH3 0x86A JUMP JUMPDEST PUSH3 0x8CB DUP2 DUP6 PUSH3 0x875 JUMP JUMPDEST SWAP4 POP PUSH3 0x8DD DUP2 DUP6 PUSH1 0x20 DUP7 ADD PUSH3 0x886 JUMP JUMPDEST PUSH3 0x8E8 DUP2 PUSH3 0x558 JUMP JUMPDEST DUP5 ADD SWAP2 POP POP SWAP3 SWAP2 POP POP JUMP JUMPDEST PUSH1 0x0 PUSH1 0x20 DUP3 ADD SWAP1 POP DUP2 DUP2 SUB PUSH1 0x0 DUP4 ADD MSTORE PUSH3 0x90F DUP2 DUP5 PUSH3 0x8B2 JUMP JUMPDEST SWAP1 POP SWAP3 SWAP2 POP POP JUMP JUMPDEST PUSH1 0x0 DUP2 SWAP1 POP SWAP2 SWAP1 POP JUMP JUMPDEST PUSH3 0x92C DUP2 PUSH3 0x917 JUMP JUMPDEST DUP2 EQ PUSH3 0x938 JUMPI PUSH1 0x0 DUP1 REVERT JUMPDEST POP JUMP JUMPDEST PUSH1 0x0 DUP2 CALLDATALOAD SWAP1 POP PUSH3 0x94C DUP2 PUSH3 0x921 JUMP JUMPDEST SWAP3 SWAP2 POP POP JUMP JUMPDEST PUSH1 0x0 DUP1 PUSH1 0x40 DUP4 DUP6 SUB SLT ISZERO PUSH3 0x96C JUMPI PUSH3 0x96B PUSH3 0x544 JUMP JUMPDEST JUMPDEST PUSH1 0x0 PUSH3 0x97C DUP6 DUP3 DUP7 ADD PUSH3 0x93B JUMP JUMPDEST SWAP3 POP POP PUSH1 0x20 PUSH3 0x98F DUP6 DUP3 DUP7 ADD PUSH3 0x93B JUMP JUMPDEST SWAP2 POP POP SWAP3 POP SWAP3 SWAP1 POP JUMP JUMPDEST PUSH1 0x0 DUP2 MLOAD SWAP1 POP SWAP2 SWAP1 POP JUMP JUMPDEST PUSH1 0x0 DUP3 DUP3 MSTORE PUSH1 0x20 DUP3 ADD SWAP1 POP SWAP3 SWAP2 POP POP JUMP JUMPDEST PUSH1 0x0 DUP2 SWAP1 POP PUSH1 0x20 DUP3 ADD SWAP1 POP SWAP2 SWAP1 POP JUMP JUMPDEST PUSH1 0x0 DUP2 SWAP1 POP SWAP2 SWAP1 POP JUMP JUMPDEST PUSH1 0x0 PUSH3 0x9F0 PUSH3 0x9EA PUSH3 0x9E4 DUP5 PUSH3 0x701 JUMP JUMPDEST PUSH3 0x9C5 JUMP JUMPDEST PUSH3 0x701 JUMP JUMPDEST SWAP1 POP SWAP2 SWAP1 POP JUMP JUMPDEST PUSH1 0x0 PUSH3 0xA04 DUP3 PUSH3 0x9CF JUMP JUMPDEST SWAP1 POP SWAP2 SWAP1 POP JUMP JUMPDEST PUSH1 0x0 PUSH3 0xA18 DUP3 PUSH3 0x9F7 JUMP JUMPDEST SWAP1 POP SWAP2 SWAP1 POP JUMP JUMPDEST PUSH3 0xA2A DUP2 PUSH3 0xA0B JUMP JUMPDEST DUP3 MSTORE POP POP JUMP JUMPDEST PUSH1 0x0 PUSH3 0xA3E DUP4 DUP4 PUSH3 0xA1F JUMP JUMPDEST PUSH1 0x20 DUP4 ADD SWAP1 POP SWAP3 SWAP2 POP POP JUMP JUMPDEST PUSH1 0x0 PUSH1 0x20 DUP3 ADD SWAP1 POP SWAP2 SWAP1 POP JUMP JUMPDEST PUSH1 0x0 PUSH3 0xA64 DUP3 PUSH3 0x999 JUMP JUMPDEST PUSH3 0xA70 DUP2 DUP6 PUSH3 0x9A4 JUMP JUMPDEST SWAP4 POP PUSH3 0xA7D DUP4 PUSH3 0x9B5 JUMP JUMPDEST DUP1 PUSH1 0x0 JUMPDEST DUP4 DUP2 LT ISZERO PUSH3 0xAB4 JUMPI DUP2 MLOAD PUSH3 0xA98 DUP9 DUP3 PUSH3 0xA30 JUMP JUMPDEST SWAP8 POP PUSH3 0xAA5 DUP4 PUSH3 0xA4A JUMP JUMPDEST SWAP3 POP POP PUSH1 0x1 DUP2 ADD SWAP1 POP PUSH3 0xA81 JUMP JUMPDEST POP DUP6 SWAP4 POP POP POP POP SWAP3 SWAP2 POP POP JUMP JUMPDEST PUSH1 0x0 PUSH1 0x20 DUP3 ADD SWAP1 POP DUP2 DUP2 SUB PUSH1 0x0 DUP4 ADD MSTORE PUSH3 0xADD DUP2 DUP5 PUSH3 0xA57 JUMP JUMPDEST SWAP1 POP SWAP3 SWAP2 POP POP JUMP JUMPDEST PUSH3 0xAF0 DUP2 PUSH3 0x917 JUMP JUMPDEST DUP3 MSTORE POP POP JUMP JUMPDEST PUSH1 0x0 PUSH1 0x20 DUP3 ADD SWAP1 POP PUSH3 0xB0D PUSH1 0x0 DUP4 ADD DUP5 PUSH3 0xAE5 JUMP JUMPDEST SWAP3 SWAP2 POP POP JUMP JUMPDEST PUSH32 0x4E487B7100000000000000000000000000000000000000000000000000000000 PUSH1 0x0 MSTORE PUSH1 0x22 PUSH1 0x4 MSTORE PUSH1 0x24 PUSH1 0x0 REVERT JUMPDEST PUSH1 0x0 PUSH1 0x2 DUP3 DIV SWAP1 POP PUSH1 0x1 DUP3 AND DUP1 PUSH3 0xB5B JUMPI PUSH1 0x7F DUP3 AND SWAP2 POP JUMPDEST PUSH1 0x20 DUP3 LT DUP2 SUB PUSH3 0xB71 JUMPI PUSH3 0xB70 PUSH3 0xB13 JUMP JUMPDEST JUMPDEST POP SWAP2 SWAP1 POP JUMP JUMPDEST PUSH1 0x0 DUP2 SWAP1 POP DUP2 PUSH1 0x0 MSTORE PUSH1 0x20 PUSH1 0x0 KECCAK256 SWAP1 POP SWAP2 SWAP1 POP JUMP JUMPDEST PUSH1 0x0 PUSH1 0x20 PUSH1 0x1F DUP4 ADD DIV SWAP1 POP SWAP2 SWAP1 POP JUMP JUMPDEST PUSH1 0x0 DUP3 DUP3 SHL SWAP1 POP SWAP3 SWAP2 POP POP JUMP JUMPDEST PUSH1 0x0 PUSH1 0x8 DUP4 MUL PUSH3 0xBDB PUSH32 0xFFFFFFFFFFFFFFFFFFFFFFFFFFFFFFFFFFFFFFFFFFFFFFFFFFFFFFFFFFFFFFFF DUP3 PUSH3 0xB9C JUMP JUMPDEST PUSH3 0xBE7 DUP7 DUP4 PUSH3 0xB9C JUMP JUMPDEST SWAP6 POP DUP1 NOT DUP5 AND SWAP4 POP DUP1 DUP7 AND DUP5 OR SWAP3 POP POP POP SWAP4 SWAP3 POP POP POP JUMP JUMPDEST PUSH1 0x0 PUSH3 0xC20 PUSH3 0xC1A PUSH3 0xC14 DUP5 PUSH3 0x917 JUMP JUMPDEST PUSH3 0x9C5 JUMP JUMPDEST PUSH3 0x917 JUMP JUMPDEST SWAP1 POP SWAP2 SWAP1 POP JUMP JUMPDEST PUSH1 0x0 DUP2 SWAP1 POP SWAP2 SWAP1 POP JUMP JUMPDEST PUSH3 0xC3C DUP4 PUSH3 0xBFF JUMP JUMPDEST PUSH3 0xC54 PUSH3 0xC4B DUP3 PUSH3 0xC27 JUMP JUMPDEST DUP5 DUP5 SLOAD PUSH3 0xBA9 JUMP JUMPDEST DUP3 SSTORE POP POP POP POP JUMP JUMPDEST PUSH1 0x0 SWAP1 JUMP JUMPDEST PUSH3 0xC6B PUSH3 0xC5C JUMP JUMPDEST PUSH3 0xC78 DUP2 DUP5 DUP5 PUSH3 0xC31 JUMP JUMPDEST POP POP POP JUMP JUMPDEST JUMPDEST DUP2 DUP2 LT ISZERO PUSH3 0xCA0 JUMPI PUSH3 0xC94 PUSH1 0x0 DUP3 PUSH3 0xC61 JUMP JUMPDEST PUSH1 0x1 DUP2 ADD SWAP1 POP PUSH3 0xC7E JUMP JUMPDEST POP POP JUMP JUMPDEST PUSH1 0x1F DUP3 GT ISZERO PUSH3 0xCEF JUMPI PUSH3 0xCB9 DUP2 PUSH3 0xB77 JUMP JUMPDEST PUSH3 0xCC4 DUP5 PUSH3 0xB8C JUMP JUMPDEST DUP2 ADD PUSH1 0x20 DUP6 LT ISZERO PUSH3 0xCD4 JUMPI DUP2 SWAP1 POP JUMPDEST PUSH3 0xCEC PUSH3 0xCE3 DUP6 PUSH3 0xB8C JUMP JUMPDEST DUP4 ADD DUP3 PUSH3 0xC7D JUMP JUMPDEST POP POP JUMPDEST POP POP POP JUMP JUMPDEST PUSH1 0x0 DUP3 DUP3 SHR SWAP1 POP SWAP3 SWAP2 POP POP JUMP JUMPDEST PUSH1 0x0 PUSH3 0xD14 PUSH1 0x0 NOT DUP5 PUSH1 0x8 MUL PUSH3 0xCF4 JUMP JUMPDEST NOT DUP1 DUP4 AND SWAP2 POP POP SWAP3 SWAP2 POP POP JUMP JUMPDEST PUSH1 0x0 PUSH3 0xD2F DUP4 DUP4 PUSH3 0xD01 JUMP JUMPDEST SWAP2 POP DUP3 PUSH1 0x2 MUL DUP3 OR SWAP1 POP SWAP3 SWAP2 POP POP JUMP JUMPDEST PUSH3 0xD4A DUP3 PUSH3 0x86A JUMP JUMPDEST PUSH8 0xFFFFFFFFFFFFFFFF DUP2 GT ISZERO PUSH3 0xD66 JUMPI PUSH3 0xD65 PUSH3 0x569 JUMP JUMPDEST JUMPDEST PUSH3 0xD72 DUP3 SLOAD PUSH3 0xB42 JUMP JUMPDEST PUSH3 0xD7F DUP3 DUP3 DUP6 PUSH3 0xCA4 JUMP JUMPDEST PUSH1 0x0 PUSH1 0x20 SWAP1 POP PUSH1 0x1F DUP4 GT PUSH1 0x1 DUP2 EQ PUSH3 0xDB7 JUMPI PUSH1 0x0 DUP5 ISZERO PUSH3 0xDA2 JUMPI DUP3 DUP8 ADD MLOAD SWAP1 POP JUMPDEST PUSH3 0xDAE DUP6 DUP3 PUSH3 0xD21 JUMP JUMPDEST DUP7 SSTORE POP PUSH3 0xE1E JUMP JUMPDEST PUSH1 0x1F NOT DUP5 AND PUSH3 0xDC7 DUP7 PUSH3 0xB77 JUMP JUMPDEST PUSH1 0x0 JUMPDEST DUP3 DUP2 LT ISZERO PUSH3 0xDF1 JUMPI DUP5 DUP10 ADD MLOAD DUP3 SSTORE PUSH1 0x1 DUP3 ADD SWAP2 POP PUSH1 0x20 DUP6 ADD SWAP5 POP PUSH1 0x20 DUP2 ADD SWAP1 POP PUSH3 0xDCA JUMP JUMPDEST DUP7 DUP4 LT ISZERO PUSH3 0xE11 JUMPI DUP5 DUP10 ADD MLOAD PUSH3 0xE0D PUSH1 0x1F DUP10 AND DUP3 PUSH3 0xD01 JUMP JUMPDEST DUP4 SSTORE POP JUMPDEST PUSH1 0x1 PUSH1 0x2 DUP9 MUL ADD DUP9 SSTORE POP POP POP JUMPDEST POP POP POP POP POP POP JUMP JUMPDEST PUSH3 0xE31 DUP2 PUSH3 0x721 JUMP JUMPDEST DUP3 MSTORE POP POP JUMP JUMPDEST PUSH1 0x0 PUSH3 0xE44 DUP3 PUSH3 0x701 JUMP JUMPDEST SWAP1 POP SWAP2 SWAP1 POP JUMP JUMPDEST PUSH3 0xE56 DUP2 PUSH3 0xE37 JUMP JUMPDEST DUP3 MSTORE POP POP JUMP JUMPDEST PUSH1 0x0 PUSH1 0xC0 DUP3 ADD SWAP1 POP DUP2 DUP2 SUB PUSH1 0x0 DUP4 ADD MSTORE PUSH3 0xE78 DUP2 DUP10 PUSH3 0x8B2 JUMP JUMPDEST SWAP1 POP DUP2 DUP2 SUB PUSH1 0x20 DUP4 ADD MSTORE PUSH3 0xE8E DUP2 DUP9 PUSH3 0x8B2 JUMP JUMPDEST SWAP1 POP DUP2 DUP2 SUB PUSH1 0x40 DUP4 ADD MSTORE PUSH3 0xEA4 DUP2 DUP8 PUSH3 0x8B2 JUMP JUMPDEST SWAP1 POP DUP2 DUP2 SUB PUSH1 0x60 DUP4 ADD MSTORE PUSH3 0xEBA DUP2 DUP7 PUSH3 0x8B2 JUMP JUMPDEST SWAP1 POP PUSH3 0xECB PUSH1 0x80 DUP4 ADD DUP6 PUSH3 0xE26 JUMP JUMPDEST PUSH3 0xEDA PUSH1 0xA0 DUP4 ADD DUP5 PUSH3 0xE4B JUMP JUMPDEST SWAP8 SWAP7 POP POP POP POP POP POP POP JUMP JUMPDEST PUSH32 0x6F6666736574206F7574206F6620626F756E6473000000000000000000000000 PUSH1 0x0 DUP3 ADD MSTORE POP JUMP JUMPDEST PUSH1 0x0 PUSH3 0xF1D PUSH1 0x14 DUP4 PUSH3 0x875 JUMP JUMPDEST SWAP2 POP PUSH3 0xF2A DUP3 PUSH3 0xEE5 JUMP JUMPDEST PUSH1 0x20 DUP3 ADD SWAP1 POP SWAP2 SWAP1 POP JUMP JUMPDEST PUSH1 0x0 PUSH1 0x20 DUP3 ADD SWAP1 POP DUP2 DUP2 SUB PUSH1 0x0 DUP4 ADD MSTORE PUSH3 0xF50 DUP2 PUSH3 0xF0E JUMP JUMPDEST SWAP1 POP SWAP2 SWAP1 POP JUMP JUMPDEST PUSH32 0x4E487B7100000000000000000000000000000000000000000000000000000000 PUSH1 0x0 MSTORE PUSH1 0x11 PUSH1 0x4 MSTORE PUSH1 0x24 PUSH1 0x0 REVERT JUMPDEST PUSH1 0x0 PUSH3 0xF93 DUP3 PUSH3 0x917 JUMP JUMPDEST SWAP2 POP PUSH3 0xFA0 DUP4 PUSH3 0x917 JUMP JUMPDEST SWAP3 POP DUP3 DUP3 SUB SWAP1 POP DUP2 DUP2 GT ISZERO PUSH3 0xFBB JUMPI PUSH3 0xFBA PUSH3 0xF57 JUMP JUMPDEST JUMPDEST SWAP3 SWAP2 POP POP JUMP JUMPDEST PUSH1 0x0 PUSH3 0xFCE DUP3 PUSH3 0x917 JUMP JUMPDEST SWAP2 POP PUSH3 0xFDB DUP4 PUSH3 0x917 JUMP JUMPDEST SWAP3 POP DUP3 DUP3 ADD SWAP1 POP DUP1 DUP3 GT ISZERO PUSH3 0xFF6 JUMPI PUSH3 0xFF5 PUSH3 0xF57 JUMP JUMPDEST JUMPDEST SWAP3 SWAP2 POP POP JUMP JUMPDEST PUSH32 0x4E487B7100000000000000000000000000000000000000000000000000000000 PUSH1 0x0 MSTORE PUSH1 0x32 PUSH1 0x4 MSTORE PUSH1 0x24 PUSH1 0x0 REVERT JUMPDEST PUSH1 0x0 PUSH3 0x1038 DUP3 PUSH3 0x917 JUMP JUMPDEST SWAP2 POP PUSH32 0xFFFFFFFFFFFFFFFFFFFFFFFFFFFFFFFFFFFFFFFFFFFFFFFFFFFFFFFFFFFFFFFF DUP3 SUB PUSH3 0x106D JUMPI PUSH3 0x106C PUSH3 0xF57 JUMP JUMPDEST JUMPDEST PUSH1 0x1 DUP3 ADD SWAP1 POP SWAP2 SWAP1 POP JUMP INVALID PUSH1 0x80 PUSH1 0x40 MSTORE CALLVALUE DUP1 ISZERO PUSH3 0x11 JUMPI PUSH1 0x0 DUP1 REVERT JUMPDEST POP PUSH1 0x40 MLOAD PUSH3 0x1597 CODESIZE SUB DUP1 PUSH3 0x1597 DUP4 CODECOPY DUP2 DUP2 ADD PUSH1 0x40 MSTORE DUP2 ADD SWAP1 PUSH3 0x37 SWAP2 SWAP1 PUSH3 0x34A JUMP JUMPDEST DUP6 PUSH1 0x1 SWAP1 DUP2 PUSH3 0x48 SWAP2 SWAP1 PUSH3 0x6AD JUMP JUMPDEST POP DUP5 PUSH1 0x2 SWAP1 DUP2 PUSH3 0x5A SWAP2 SWAP1 PUSH3 0x6AD JUMP JUMPDEST POP DUP4 PUSH1 0x3 SWAP1 DUP2 PUSH3 0x6C SWAP2 SWAP1 PUSH3 0x6AD JUMP JUMPDEST POP DUP3 PUSH1 0x4 SWAP1 DUP2 PUSH3 0x7E SWAP2 SWAP1 PUSH3 0x6AD JUMP JUMPDEST POP DUP2 PUSH1 0x5 PUSH1 0x0 PUSH2 0x100 EXP DUP2 SLOAD DUP2 PUSH20 0xFFFFFFFFFFFFFFFFFFFFFFFFFFFFFFFFFFFFFFFF MUL NOT AND SWAP1 DUP4 PUSH20 0xFFFFFFFFFFFFFFFFFFFFFFFFFFFFFFFFFFFFFFFF AND MUL OR SWAP1 SSTORE POP DUP1 PUSH1 0x6 PUSH1 0x0 PUSH2 0x100 EXP DUP2 SLOAD DUP2 PUSH20 0xFFFFFFFFFFFFFFFFFFFFFFFFFFFFFFFFFFFFFFFF MUL NOT AND SWAP1 DUP4 PUSH20 0xFFFFFFFFFFFFFFFFFFFFFFFFFFFFFFFFFFFFFFFF AND MUL OR SWAP1 SSTORE POP POP POP POP POP POP POP PUSH3 0x794 JUMP JUMPDEST PUSH1 0x0 PUSH1 0x40 MLOAD SWAP1 POP SWAP1 JUMP JUMPDEST PUSH1 0x0 DUP1 REVERT JUMPDEST PUSH1 0x0 DUP1 REVERT JUMPDEST PUSH1 0x0 DUP1 REVERT JUMPDEST PUSH1 0x0 DUP1 REVERT JUMPDEST PUSH1 0x0 PUSH1 0x1F NOT PUSH1 0x1F DUP4 ADD AND SWAP1 POP SWAP2 SWAP1 POP JUMP JUMPDEST PUSH32 0x4E487B7100000000000000000000000000000000000000000000000000000000 PUSH1 0x0 MSTORE PUSH1 0x41 PUSH1 0x4 MSTORE PUSH1 0x24 PUSH1 0x0 REVERT JUMPDEST PUSH3 0x176 DUP3 PUSH3 0x12B JUMP JUMPDEST DUP2 ADD DUP2 DUP2 LT PUSH8 0xFFFFFFFFFFFFFFFF DUP3 GT OR ISZERO PUSH3 0x198 JUMPI PUSH3 0x197 PUSH3 0x13C JUMP JUMPDEST JUMPDEST DUP1 PUSH1 0x40 MSTORE POP POP POP JUMP JUMPDEST PUSH1 0x0 PUSH3 0x1AD PUSH3 0x10D JUMP JUMPDEST SWAP1 POP PUSH3 0x1BB DUP3 DUP3 PUSH3 0x16B JUMP JUMPDEST SWAP2 SWAP1 POP JUMP JUMPDEST PUSH1 0x0 PUSH8 0xFFFFFFFFFFFFFFFF DUP3 GT ISZERO PUSH3 0x1DE JUMPI PUSH3 0x1DD PUSH3 0x13C JUMP JUMPDEST JUMPDEST PUSH3 0x1E9 DUP3 PUSH3 0x12B JUMP JUMPDEST SWAP1 POP PUSH1 0x20 DUP2 ADD SWAP1 POP SWAP2 SWAP1 POP JUMP JUMPDEST PUSH1 0x0 JUMPDEST DUP4 DUP2 LT ISZERO PUSH3 0x216 JUMPI DUP1 DUP3 ADD MLOAD DUP2 DUP5 ADD MSTORE PUSH1 0x20 DUP2 ADD SWAP1 POP PUSH3 0x1F9 JUMP JUMPDEST PUSH1 0x0 DUP5 DUP5 ADD MSTORE POP POP POP POP JUMP JUMPDEST PUSH1 0x0 PUSH3 0x239 PUSH3 0x233 DUP5 PUSH3 0x1C0 JUMP JUMPDEST PUSH3 0x1A1 JUMP JUMPDEST SWAP1 POP DUP3 DUP2 MSTORE PUSH1 0x20 DUP2 ADD DUP5 DUP5 DUP5 ADD GT ISZERO PUSH3 0x258 JUMPI PUSH3 0x257 PUSH3 0x126 JUMP JUMPDEST JUMPDEST PUSH3 0x265 DUP5 DUP3 DUP6 PUSH3 0x1F6 JUMP JUMPDEST POP SWAP4 SWAP3 POP POP POP JUMP JUMPDEST PUSH1 0x0 DUP3 PUSH1 0x1F DUP4 ADD SLT PUSH3 0x285 JUMPI PUSH3 0x284 PUSH3 0x121 JUMP JUMPDEST JUMPDEST DUP2 MLOAD PUSH3 0x297 DUP5 DUP3 PUSH1 0x20 DUP7 ADD PUSH3 0x222 JUMP JUMPDEST SWAP2 POP POP SWAP3 SWAP2 POP POP JUMP JUMPDEST PUSH1 0x0 PUSH20 0xFFFFFFFFFFFFFFFFFFFFFFFFFFFFFFFFFFFFFFFF DUP3 AND SWAP1 POP SWAP2 SWAP1 POP JUMP JUMPDEST PUSH1 0x0 PUSH3 0x2CD DUP3 PUSH3 0x2A0 JUMP JUMPDEST SWAP1 POP SWAP2 SWAP1 POP JUMP JUMPDEST PUSH3 0x2DF DUP2 PUSH3 0x2C0 JUMP JUMPDEST DUP2 EQ PUSH3 0x2EB JUMPI PUSH1 0x0 DUP1 REVERT JUMPDEST POP JUMP JUMPDEST PUSH1 0x0 DUP2 MLOAD SWAP1 POP PUSH3 0x2FF DUP2 PUSH3 0x2D4 JUMP JUMPDEST SWAP3 SWAP2 POP POP JUMP JUMPDEST PUSH1 0x0 PUSH3 0x312 DUP3 PUSH3 0x2A0 JUMP JUMPDEST SWAP1 POP SWAP2 SWAP1 POP JUMP JUMPDEST PUSH3 0x324 DUP2 PUSH3 0x305 JUMP JUMPDEST DUP2 EQ PUSH3 0x330 JUMPI PUSH1 0x0 DUP1 REVERT JUMPDEST POP JUMP JUMPDEST PUSH1 0x0 DUP2 MLOAD SWAP1 POP PUSH3 0x344 DUP2 PUSH3 0x319 JUMP JUMPDEST SWAP3 SWAP2 POP POP JUMP JUMPDEST PUSH1 0x0 DUP1 PUSH1 0x0 DUP1 PUSH1 0x0 DUP1 PUSH1 0xC0 DUP8 DUP10 SUB SLT ISZERO PUSH3 0x36A JUMPI PUSH3 0x369 PUSH3 0x117 JUMP JUMPDEST JUMPDEST PUSH1 0x0 DUP8 ADD MLOAD PUSH8 0xFFFFFFFFFFFFFFFF DUP2 GT ISZERO PUSH3 0x38B JUMPI PUSH3 0x38A PUSH3 0x11C JUMP JUMPDEST JUMPDEST PUSH3 0x399 DUP10 DUP3 DUP11 ADD PUSH3 0x26D JUMP JUMPDEST SWAP7 POP POP PUSH1 0x20 DUP8 ADD MLOAD PUSH8 0xFFFFFFFFFFFFFFFF DUP2 GT ISZERO PUSH3 0x3BD JUMPI PUSH3 0x3BC PUSH3 0x11C JUMP JUMPDEST JUMPDEST PUSH3 0x3CB DUP10 DUP3 DUP11 ADD PUSH3 0x26D JUMP JUMPDEST SWAP6 POP POP PUSH1 0x40 DUP8 ADD MLOAD PUSH8 0xFFFFFFFFFFFFFFFF DUP2 GT ISZERO PUSH3 0x3EF JUMPI PUSH3 0x3EE PUSH3 0x11C JUMP JUMPDEST JUMPDEST PUSH3 0x3FD DUP10 DUP3 DUP11 ADD PUSH3 0x26D JUMP JUMPDEST SWAP5 POP POP PUSH1 0x60 DUP8 ADD MLOAD PUSH8 0xFFFFFFFFFFFFFFFF DUP2 GT ISZERO PUSH3 0x421 JUMPI PUSH3 0x420 PUSH3 0x11C JUMP JUMPDEST JUMPDEST PUSH3 0x42F DUP10 DUP3 DUP11 ADD PUSH3 0x26D JUMP JUMPDEST SWAP4 POP POP PUSH1 0x80 PUSH3 0x442 DUP10 DUP3 DUP11 ADD PUSH3 0x2EE JUMP JUMPDEST SWAP3 POP POP PUSH1 0xA0 PUSH3 0x455 DUP10 DUP3 DUP11 ADD PUSH3 0x333 JUMP JUMPDEST SWAP2 POP POP SWAP3 SWAP6 POP SWAP3 SWAP6 POP SWAP3 SWAP6 JUMP JUMPDEST PUSH1 0x0 DUP2 MLOAD SWAP1 POP SWAP2 SWAP1 POP JUMP JUMPDEST PUSH32 0x4E487B7100000000000000000000000000000000000000000000000000000000 PUSH1 0x0 MSTORE PUSH1 0x22 PUSH1 0x4 MSTORE PUSH1 0x24 PUSH1 0x0 REVERT JUMPDEST PUSH1 0x0 PUSH1 0x2 DUP3 DIV SWAP1 POP PUSH1 0x1 DUP3 AND DUP1 PUSH3 0x4B5 JUMPI PUSH1 0x7F DUP3 AND SWAP2 POP JUMPDEST PUSH1 0x20 DUP3 LT DUP2 SUB PUSH3 0x4CB JUMPI PUSH3 0x4CA PUSH3 0x46D JUMP JUMPDEST JUMPDEST POP SWAP2 SWAP1 POP JUMP JUMPDEST PUSH1 0x0 DUP2 SWAP1 POP DUP2 PUSH1 0x0 MSTORE PUSH1 0x20 PUSH1 0x0 KECCAK256 SWAP1 POP SWAP2 SWAP1 POP JUMP JUMPDEST PUSH1 0x0 PUSH1 0x20 PUSH1 0x1F DUP4 ADD DIV SWAP1 POP SWAP2 SWAP1 POP JUMP JUMPDEST PUSH1 0x0 DUP3 DUP3 SHL SWAP1 POP SWAP3 SWAP2 POP POP JUMP JUMPDEST PUSH1 0x0 PUSH1 0x8 DUP4 MUL PUSH3 0x535 PUSH32 0xFFFFFFFFFFFFFFFFFFFFFFFFFFFFFFFFFFFFFFFFFFFFFFFFFFFFFFFFFFFFFFFF DUP3 PUSH3 0x4F6 JUMP JUMPDEST PUSH3 0x541 DUP7 DUP4 PUSH3 0x4F6 JUMP JUMPDEST SWAP6 POP DUP1 NOT DUP5 AND SWAP4 POP DUP1 DUP7 AND DUP5 OR SWAP3 POP POP POP SWAP4 SWAP3 POP POP POP JUMP JUMPDEST PUSH1 0x0 DUP2 SWAP1 POP SWAP2 SWAP1 POP JUMP JUMPDEST PUSH1 0x0 DUP2 SWAP1 POP SWAP2 SWAP1 POP JUMP JUMPDEST PUSH1 0x0 PUSH3 0x58E PUSH3 0x588 PUSH3 0x582 DUP5 PUSH3 0x559 JUMP JUMPDEST PUSH3 0x563 JUMP JUMPDEST PUSH3 0x559 JUMP JUMPDEST SWAP1 POP SWAP2 SWAP1 POP JUMP JUMPDEST PUSH1 0x0 DUP2 SWAP1 POP SWAP2 SWAP1 POP JUMP JUMPDEST PUSH3 0x5AA DUP4 PUSH3 0x56D JUMP JUMPDEST PUSH3 0x5C2 PUSH3 0x5B9 DUP3 PUSH3 0x595 JUMP JUMPDEST DUP5 DUP5 SLOAD PUSH3 0x503 JUMP JUMPDEST DUP3 SSTORE POP POP POP POP JUMP JUMPDEST PUSH1 0x0 SWAP1 JUMP JUMPDEST PUSH3 0x5D9 PUSH3 0x5CA JUMP JUMPDEST PUSH3 0x5E6 DUP2 DUP5 DUP5 PUSH3 0x59F JUMP JUMPDEST POP POP POP JUMP JUMPDEST JUMPDEST DUP2 DUP2 LT ISZERO PUSH3 0x60E JUMPI PUSH3 0x602 PUSH1 0x0 DUP3 PUSH3 0x5CF JUMP JUMPDEST PUSH1 0x1 DUP2 ADD SWAP1 POP PUSH3 0x5EC JUMP JUMPDEST POP POP JUMP JUMPDEST PUSH1 0x1F DUP3 GT ISZERO PUSH3 0x65D JUMPI PUSH3 0x627 DUP2 PUSH3 0x4D1 JUMP JUMPDEST PUSH3 0x632 DUP5 PUSH3 0x4E6 JUMP JUMPDEST DUP2 ADD PUSH1 0x20 DUP6 LT ISZERO PUSH3 0x642 JUMPI DUP2 SWAP1 POP JUMPDEST PUSH3 0x65A PUSH3 0x651 DUP6 PUSH3 0x4E6 JUMP JUMPDEST DUP4 ADD DUP3 PUSH3 0x5EB JUMP JUMPDEST POP POP JUMPDEST POP POP POP JUMP JUMPDEST PUSH1 0x0 DUP3 DUP3 SHR SWAP1 POP SWAP3 SWAP2 POP POP JUMP JUMPDEST PUSH1 0x0 PUSH3 0x682 PUSH1 0x0 NOT DUP5 PUSH1 0x8 MUL PUSH3 0x662 JUMP JUMPDEST NOT DUP1 DUP4 AND SWAP2 POP POP SWAP3 SWAP2 POP POP JUMP JUMPDEST PUSH1 0x0 PUSH3 0x69D DUP4 DUP4 PUSH3 0x66F JUMP JUMPDEST SWAP2 POP DUP3 PUSH1 0x2 MUL DUP3 OR SWAP1 POP SWAP3 SWAP2 POP POP JUMP JUMPDEST PUSH3 0x6B8 DUP3 PUSH3 0x462 JUMP JUMPDEST PUSH8 0xFFFFFFFFFFFFFFFF DUP2 GT ISZERO PUSH3 0x6D4 JUMPI PUSH3 0x6D3 PUSH3 0x13C JUMP JUMPDEST JUMPDEST PUSH3 0x6E0 DUP3 SLOAD PUSH3 0x49C JUMP JUMPDEST PUSH3 0x6ED DUP3 DUP3 DUP6 PUSH3 0x612 JUMP JUMPDEST PUSH1 0x0 PUSH1 0x20 SWAP1 POP PUSH1 0x1F DUP4 GT PUSH1 0x1 DUP2 EQ PUSH3 0x725 JUMPI PUSH1 0x0 DUP5 ISZERO PUSH3 0x710 JUMPI DUP3 DUP8 ADD MLOAD SWAP1 POP JUMPDEST PUSH3 0x71C DUP6 DUP3 PUSH3 0x68F JUMP JUMPDEST DUP7 SSTORE POP PUSH3 0x78C JUMP JUMPDEST PUSH1 0x1F NOT DUP5 AND PUSH3 0x735 DUP7 PUSH3 0x4D1 JUMP JUMPDEST PUSH1 0x0 JUMPDEST DUP3 DUP2 LT ISZERO PUSH3 0x75F JUMPI DUP5 DUP10 ADD MLOAD DUP3 SSTORE PUSH1 0x1 DUP3 ADD SWAP2 POP PUSH1 0x20 DUP6 ADD SWAP5 POP PUSH1 0x20 DUP2 ADD SWAP1 POP PUSH3 0x738 JUMP JUMPDEST DUP7 DUP4 LT ISZERO PUSH3 0x77F JUMPI DUP5 DUP10 ADD MLOAD PUSH3 0x77B PUSH1 0x1F DUP10 AND DUP3 PUSH3 0x66F JUMP JUMPDEST DUP4 SSTORE POP JUMPDEST PUSH1 0x1 PUSH1 0x2 DUP9 MUL ADD DUP9 SSTORE POP POP POP JUMPDEST POP POP POP POP POP POP JUMP JUMPDEST PUSH2 0xDF3 DUP1 PUSH3 0x7A4 PUSH1 0x0 CODECOPY PUSH1 0x0 RETURN INVALID PUSH1 0x80 PUSH1 0x40 MSTORE PUSH1 0x4 CALLDATASIZE LT PUSH2 0xDC JUMPI PUSH1 0x0 CALLDATALOAD PUSH1 0xE0 SHR DUP1 PUSH4 0x3CCFD60B GT PUSH2 0x7F JUMPI DUP1 PUSH4 0x8DA5CB5B GT PUSH2 0x59 JUMPI DUP1 PUSH4 0x8DA5CB5B EQ PUSH2 0x259 JUMPI DUP1 PUSH4 0xB90497E0 EQ PUSH2 0x284 JUMPI DUP1 PUSH4 0xDE2ED893 EQ PUSH2 0x2AF JUMPI DUP1 PUSH4 0xED88C68E EQ PUSH2 0x2DA JUMPI PUSH2 0xDC JUMP JUMPDEST DUP1 PUSH4 0x3CCFD60B EQ PUSH2 0x1EC JUMPI DUP1 PUSH4 0x5600F04F EQ PUSH2 0x203 JUMPI DUP1 PUSH4 0x7284E416 EQ PUSH2 0x22E JUMPI PUSH2 0xDC JUMP JUMPDEST DUP1 PUSH4 0x1A57F7B4 GT PUSH2 0xBB JUMPI DUP1 PUSH4 0x1A57F7B4 EQ PUSH2 0x141 JUMPI DUP1 PUSH4 0x1C31F710 EQ PUSH2 0x16D JUMPI DUP1 PUSH4 0x1F522595 EQ PUSH2 0x196 JUMPI DUP1 PUSH4 0x38AF3EED EQ PUSH2 0x1C1 JUMPI PUSH2 0xDC JUMP JUMPDEST DUP1 PUSH3 0x5C33E1 EQ PUSH2 0xE1 JUMPI DUP1 PUSH4 0x180B97C EQ PUSH2 0xEB JUMPI DUP1 PUSH4 0x6FDDE03 EQ PUSH2 0x116 JUMPI JUMPDEST PUSH1 0x0 DUP1 REVERT JUMPDEST PUSH2 0xE9 PUSH2 0x2E4 JUMP JUMPDEST STOP JUMPDEST CALLVALUE DUP1 ISZERO PUSH2 0xF7 JUMPI PUSH1 0x0 DUP1 REVERT JUMPDEST POP PUSH2 0x100 PUSH2 0x319 JUMP JUMPDEST PUSH1 0x40 MLOAD PUSH2 0x10D SWAP2 SWAP1 PUSH2 0x99C JUMP JUMPDEST PUSH1 0x40 MLOAD DUP1 SWAP2 SUB SWAP1 RETURN JUMPDEST CALLVALUE DUP1 ISZERO PUSH2 0x122 JUMPI PUSH1 0x0 DUP1 REVERT JUMPDEST POP PUSH2 0x12B PUSH2 0x362 JUMP JUMPDEST PUSH1 0x40 MLOAD PUSH2 0x138 SWAP2 SWAP1 PUSH2 0xA47 JUMP JUMPDEST PUSH1 0x40 MLOAD DUP1 SWAP2 SUB SWAP1 RETURN JUMPDEST CALLVALUE DUP1 ISZERO PUSH2 0x14D JUMPI PUSH1 0x0 DUP1 REVERT JUMPDEST POP PUSH2 0x156 PUSH2 0x3F0 JUMP JUMPDEST PUSH1 0x40 MLOAD PUSH2 0x164 SWAP3 SWAP2 SWAP1 PUSH2 0xB27 JUMP JUMPDEST PUSH1 0x40 MLOAD DUP1 SWAP2 SUB SWAP1 RETURN JUMPDEST CALLVALUE DUP1 ISZERO PUSH2 0x179 JUMPI PUSH1 0x0 DUP1 REVERT JUMPDEST POP PUSH2 0x194 PUSH1 0x4 DUP1 CALLDATASIZE SUB DUP2 ADD SWAP1 PUSH2 0x18F SWAP2 SWAP1 PUSH2 0xBC1 JUMP JUMPDEST PUSH2 0x564 JUMP JUMPDEST STOP JUMPDEST CALLVALUE DUP1 ISZERO PUSH2 0x1A2 JUMPI PUSH1 0x0 DUP1 REVERT JUMPDEST POP PUSH2 0x1AB PUSH2 0x5A8 JUMP JUMPDEST PUSH1 0x40 MLOAD PUSH2 0x1B8 SWAP2 SWAP1 PUSH2 0x99C JUMP JUMPDEST PUSH1 0x40 MLOAD DUP1 SWAP2 SUB SWAP1 RETURN JUMPDEST CALLVALUE DUP1 ISZERO PUSH2 0x1CD JUMPI PUSH1 0x0 DUP1 REVERT JUMPDEST POP PUSH2 0x1D6 PUSH2 0x5AE JUMP JUMPDEST PUSH1 0x40 MLOAD PUSH2 0x1E3 SWAP2 SWAP1 PUSH2 0xBFD JUMP JUMPDEST PUSH1 0x40 MLOAD DUP1 SWAP2 SUB SWAP1 RETURN JUMPDEST CALLVALUE DUP1 ISZERO PUSH2 0x1F8 JUMPI PUSH1 0x0 DUP1 REVERT JUMPDEST POP PUSH2 0x201 PUSH2 0x5D4 JUMP JUMPDEST STOP JUMPDEST CALLVALUE DUP1 ISZERO PUSH2 0x20F JUMPI PUSH1 0x0 DUP1 REVERT JUMPDEST POP PUSH2 0x218 PUSH2 0x67C JUMP JUMPDEST PUSH1 0x40 MLOAD PUSH2 0x225 SWAP2 SWAP1 PUSH2 0xA47 JUMP JUMPDEST PUSH1 0x40 MLOAD DUP1 SWAP2 SUB SWAP1 RETURN JUMPDEST CALLVALUE DUP1 ISZERO PUSH2 0x23A JUMPI PUSH1 0x0 DUP1 REVERT JUMPDEST POP PUSH2 0x243 PUSH2 0x70A JUMP JUMPDEST PUSH1 0x40 MLOAD PUSH2 0x250 SWAP2 SWAP1 PUSH2 0xA47 JUMP JUMPDEST PUSH1 0x40 MLOAD DUP1 SWAP2 SUB SWAP1 RETURN JUMPDEST CALLVALUE DUP1 ISZERO PUSH2 0x265 JUMPI PUSH1 0x0 DUP1 REVERT JUMPDEST POP PUSH2 0x26E PUSH2 0x798 JUMP JUMPDEST PUSH1 0x40 MLOAD PUSH2 0x27B SWAP2 SWAP1 PUSH2 0xC39 JUMP JUMPDEST PUSH1 0x40 MLOAD DUP1 SWAP2 SUB SWAP1 RETURN JUMPDEST CALLVALUE DUP1 ISZERO PUSH2 0x290 JUMPI PUSH1 0x0 DUP1 REVERT JUMPDEST POP PUSH2 0x299 PUSH2 0x7BE JUMP JUMPDEST PUSH1 0x40 MLOAD PUSH2 0x2A6 SWAP2 SWAP1 PUSH2 0xA47 JUMP JUMPDEST PUSH1 0x40 MLOAD DUP1 SWAP2 SUB SWAP1 RETURN JUMPDEST CALLVALUE DUP1 ISZERO PUSH2 0x2BB JUMPI PUSH1 0x0 DUP1 REVERT JUMPDEST POP PUSH2 0x2C4 PUSH2 0x84C JUMP JUMPDEST PUSH1 0x40 MLOAD PUSH2 0x2D1 SWAP2 SWAP1 PUSH2 0x99C JUMP JUMPDEST PUSH1 0x40 MLOAD DUP1 SWAP2 SUB SWAP1 RETURN JUMPDEST PUSH2 0x2E2 PUSH2 0x852 JUMP JUMPDEST STOP JUMPDEST PUSH2 0x2F9 CALLVALUE PUSH1 0x7 SLOAD PUSH2 0x96D SWAP1 SWAP2 SWAP1 PUSH4 0xFFFFFFFF AND JUMP JUMPDEST PUSH1 0x7 DUP2 SWAP1 SSTORE POP PUSH1 0x8 PUSH1 0x0 DUP2 SLOAD DUP1 SWAP3 SWAP2 SWAP1 PUSH2 0x312 SWAP1 PUSH2 0xC83 JUMP JUMPDEST SWAP2 SWAP1 POP SSTORE POP JUMP JUMPDEST PUSH1 0x0 DUP1 PUSH1 0x0 CALLER PUSH20 0xFFFFFFFFFFFFFFFFFFFFFFFFFFFFFFFFFFFFFFFF AND PUSH20 0xFFFFFFFFFFFFFFFFFFFFFFFFFFFFFFFFFFFFFFFF AND DUP2 MSTORE PUSH1 0x20 ADD SWAP1 DUP2 MSTORE PUSH1 0x20 ADD PUSH1 0x0 KECCAK256 DUP1 SLOAD SWAP1 POP SWAP1 POP SWAP1 JUMP JUMPDEST PUSH1 0x1 DUP1 SLOAD PUSH2 0x36F SWAP1 PUSH2 0xCFA JUMP JUMPDEST DUP1 PUSH1 0x1F ADD PUSH1 0x20 DUP1 SWAP2 DIV MUL PUSH1 0x20 ADD PUSH1 0x40 MLOAD SWAP1 DUP2 ADD PUSH1 0x40 MSTORE DUP1 SWAP3 SWAP2 SWAP1 DUP2 DUP2 MSTORE PUSH1 0x20 ADD DUP3 DUP1 SLOAD PUSH2 0x39B SWAP1 PUSH2 0xCFA JUMP JUMPDEST DUP1 ISZERO PUSH2 0x3E8 JUMPI DUP1 PUSH1 0x1F LT PUSH2 0x3BD JUMPI PUSH2 0x100 DUP1 DUP4 SLOAD DIV MUL DUP4 MSTORE SWAP2 PUSH1 0x20 ADD SWAP2 PUSH2 0x3E8 JUMP JUMPDEST DUP3 ADD SWAP2 SWAP1 PUSH1 0x0 MSTORE PUSH1 0x20 PUSH1 0x0 KECCAK256 SWAP1 JUMPDEST DUP2 SLOAD DUP2 MSTORE SWAP1 PUSH1 0x1 ADD SWAP1 PUSH1 0x20 ADD DUP1 DUP4 GT PUSH2 0x3CB JUMPI DUP3 SWAP1 SUB PUSH1 0x1F AND DUP3 ADD SWAP2 JUMPDEST POP POP POP POP POP DUP2 JUMP JUMPDEST PUSH1 0x60 DUP1 PUSH1 0x0 PUSH2 0x3FD PUSH2 0x319 JUMP JUMPDEST SWAP1 POP DUP1 PUSH8 0xFFFFFFFFFFFFFFFF DUP2 GT ISZERO PUSH2 0x419 JUMPI PUSH2 0x418 PUSH2 0xD2B JUMP JUMPDEST JUMPDEST PUSH1 0x40 MLOAD SWAP1 DUP1 DUP3 MSTORE DUP1 PUSH1 0x20 MUL PUSH1 0x20 ADD DUP3 ADD PUSH1 0x40 MSTORE DUP1 ISZERO PUSH2 0x447 JUMPI DUP2 PUSH1 0x20 ADD PUSH1 0x20 DUP3 MUL DUP1 CALLDATASIZE DUP4 CALLDATACOPY DUP1 DUP3 ADD SWAP2 POP POP SWAP1 POP JUMPDEST POP SWAP3 POP DUP1 PUSH8 0xFFFFFFFFFFFFFFFF DUP2 GT ISZERO PUSH2 0x464 JUMPI PUSH2 0x463 PUSH2 0xD2B JUMP JUMPDEST JUMPDEST PUSH1 0x40 MLOAD SWAP1 DUP1 DUP3 MSTORE DUP1 PUSH1 0x20 MUL PUSH1 0x20 ADD DUP3 ADD PUSH1 0x40 MSTORE DUP1 ISZERO PUSH2 0x492 JUMPI DUP2 PUSH1 0x20 ADD PUSH1 0x20 DUP3 MUL DUP1 CALLDATASIZE DUP4 CALLDATACOPY DUP1 DUP3 ADD SWAP2 POP POP SWAP1 POP JUMPDEST POP SWAP2 POP PUSH1 0x0 JUMPDEST DUP2 DUP2 LT ISZERO PUSH2 0x55E JUMPI PUSH1 0x0 DUP1 PUSH1 0x0 CALLER PUSH20 0xFFFFFFFFFFFFFFFFFFFFFFFFFFFFFFFFFFFFFFFF AND PUSH20 0xFFFFFFFFFFFFFFFFFFFFFFFFFFFFFFFFFFFFFFFF AND DUP2 MSTORE PUSH1 0x20 ADD SWAP1 DUP2 MSTORE PUSH1 0x20 ADD PUSH1 0x0 KECCAK256 DUP3 DUP2 SLOAD DUP2 LT PUSH2 0x4F2 JUMPI PUSH2 0x4F1 PUSH2 0xD5A JUMP JUMPDEST JUMPDEST SWAP1 PUSH1 0x0 MSTORE PUSH1 0x20 PUSH1 0x0 KECCAK256 SWAP1 PUSH1 0x2 MUL ADD SWAP1 POP DUP1 PUSH1 0x0 ADD SLOAD DUP6 DUP4 DUP2 MLOAD DUP2 LT PUSH2 0x51A JUMPI PUSH2 0x519 PUSH2 0xD5A JUMP JUMPDEST JUMPDEST PUSH1 0x20 MUL PUSH1 0x20 ADD ADD DUP2 DUP2 MSTORE POP POP DUP1 PUSH1 0x1 ADD SLOAD DUP5 DUP4 DUP2 MLOAD DUP2 LT PUSH2 0x53E JUMPI PUSH2 0x53D PUSH2 0xD5A JUMP JUMPDEST JUMPDEST PUSH1 0x20 MUL PUSH1 0x20 ADD ADD DUP2 DUP2 MSTORE POP POP POP DUP1 DUP1 PUSH2 0x556 SWAP1 PUSH2 0xC83 JUMP JUMPDEST SWAP2 POP POP PUSH2 0x498 JUMP JUMPDEST POP POP SWAP1 SWAP2 JUMP JUMPDEST DUP1 PUSH1 0x5 PUSH1 0x0 PUSH2 0x100 EXP DUP2 SLOAD DUP2 PUSH20 0xFFFFFFFFFFFFFFFFFFFFFFFFFFFFFFFFFFFFFFFF MUL NOT AND SWAP1 DUP4 PUSH20 0xFFFFFFFFFFFFFFFFFFFFFFFFFFFFFFFFFFFFFFFF AND MUL OR SWAP1 SSTORE POP POP JUMP JUMPDEST PUSH1 0x8 SLOAD DUP2 JUMP JUMPDEST PUSH1 0x5 PUSH1 0x0 SWAP1 SLOAD SWAP1 PUSH2 0x100 EXP SWAP1 DIV PUSH20 0xFFFFFFFFFFFFFFFFFFFFFFFFFFFFFFFFFFFFFFFF AND DUP2 JUMP JUMPDEST PUSH1 0x0 SELFBALANCE SWAP1 POP PUSH1 0x5 PUSH1 0x0 SWAP1 SLOAD SWAP1 PUSH2 0x100 EXP SWAP1 DIV PUSH20 0xFFFFFFFFFFFFFFFFFFFFFFFFFFFFFFFFFFFFFFFF AND PUSH20 0xFFFFFFFFFFFFFFFFFFFFFFFFFFFFFFFFFFFFFFFF AND PUSH2 0x8FC DUP3 SWAP1 DUP2 ISZERO MUL SWAP1 PUSH1 0x40 MLOAD PUSH1 0x0 PUSH1 0x40 MLOAD DUP1 DUP4 SUB DUP2 DUP6 DUP9 DUP9 CALL SWAP4 POP POP POP POP ISZERO DUP1 ISZERO PUSH2 0x641 JUMPI RETURNDATASIZE PUSH1 0x0 DUP1 RETURNDATACOPY RETURNDATASIZE PUSH1 0x0 REVERT JUMPDEST POP PUSH32 0x5B6B431D4476A211BB7D41C20D1AAB9AE2321DEEE0D20BE3D9FC9B1093FA6E3D DUP2 PUSH1 0x40 MLOAD PUSH2 0x671 SWAP2 SWAP1 PUSH2 0x99C JUMP JUMPDEST PUSH1 0x40 MLOAD DUP1 SWAP2 SUB SWAP1 LOG1 POP JUMP JUMPDEST PUSH1 0x2 DUP1 SLOAD PUSH2 0x689 SWAP1 PUSH2 0xCFA JUMP JUMPDEST DUP1 PUSH1 0x1F ADD PUSH1 0x20 DUP1 SWAP2 DIV MUL PUSH1 0x20 ADD PUSH1 0x40 MLOAD SWAP1 DUP2 ADD PUSH1 0x40 MSTORE DUP1 SWAP3 SWAP2 SWAP1 DUP2 DUP2 MSTORE PUSH1 0x20 ADD DUP3 DUP1 SLOAD PUSH2 0x6B5 SWAP1 PUSH2 0xCFA JUMP JUMPDEST DUP1 ISZERO PUSH2 0x702 JUMPI DUP1 PUSH1 0x1F LT PUSH2 0x6D7 JUMPI PUSH2 0x100 DUP1 DUP4 SLOAD DIV MUL DUP4 MSTORE SWAP2 PUSH1 0x20 ADD SWAP2 PUSH2 0x702 JUMP JUMPDEST DUP3 ADD SWAP2 SWAP1 PUSH1 0x0 MSTORE PUSH1 0x20 PUSH1 0x0 KECCAK256 SWAP1 JUMPDEST DUP2 SLOAD DUP2 MSTORE SWAP1 PUSH1 0x1 ADD SWAP1 PUSH1 0x20 ADD DUP1 DUP4 GT PUSH2 0x6E5 JUMPI DUP3 SWAP1 SUB PUSH1 0x1F AND DUP3 ADD SWAP2 JUMPDEST POP POP POP POP POP DUP2 JUMP JUMPDEST PUSH1 0x4 DUP1 SLOAD PUSH2 0x717 SWAP1 PUSH2 0xCFA JUMP JUMPDEST DUP1 PUSH1 0x1F ADD PUSH1 0x20 DUP1 SWAP2 DIV MUL PUSH1 0x20 ADD PUSH1 0x40 MLOAD SWAP1 DUP2 ADD PUSH1 0x40 MSTORE DUP1 SWAP3 SWAP2 SWAP1 DUP2 DUP2 MSTORE PUSH1 0x20 ADD DUP3 DUP1 SLOAD PUSH2 0x743 SWAP1 PUSH2 0xCFA JUMP JUMPDEST DUP1 ISZERO PUSH2 0x790 JUMPI DUP1 PUSH1 0x1F LT PUSH2 0x765 JUMPI PUSH2 0x100 DUP1 DUP4 SLOAD DIV MUL DUP4 MSTORE SWAP2 PUSH1 0x20 ADD SWAP2 PUSH2 0x790 JUMP JUMPDEST DUP3 ADD SWAP2 SWAP1 PUSH1 0x0 MSTORE PUSH1 0x20 PUSH1 0x0 KECCAK256 SWAP1 JUMPDEST DUP2 SLOAD DUP2 MSTORE SWAP1 PUSH1 0x1 ADD SWAP1 PUSH1 0x20 ADD DUP1 DUP4 GT PUSH2 0x773 JUMPI DUP3 SWAP1 SUB PUSH1 0x1F AND DUP3 ADD SWAP2 JUMPDEST POP POP POP POP POP DUP2 JUMP JUMPDEST PUSH1 0x6 PUSH1 0x0 SWAP1 SLOAD SWAP1 PUSH2 0x100 EXP SWAP1 DIV PUSH20 0xFFFFFFFFFFFFFFFFFFFFFFFFFFFFFFFFFFFFFFFF AND DUP2 JUMP JUMPDEST PUSH1 0x3 DUP1 SLOAD PUSH2 0x7CB SWAP1 PUSH2 0xCFA JUMP JUMPDEST DUP1 PUSH1 0x1F ADD PUSH1 0x20 DUP1 SWAP2 DIV MUL PUSH1 0x20 ADD PUSH1 0x40 MLOAD SWAP1 DUP2 ADD PUSH1 0x40 MSTORE DUP1 SWAP3 SWAP2 SWAP1 DUP2 DUP2 MSTORE PUSH1 0x20 ADD DUP3 DUP1 SLOAD PUSH2 0x7F7 SWAP1 PUSH2 0xCFA JUMP JUMPDEST DUP1 ISZERO PUSH2 0x844 JUMPI DUP1 PUSH1 0x1F LT PUSH2 0x819 JUMPI PUSH2 0x100 DUP1 DUP4 SLOAD DIV MUL DUP4 MSTORE SWAP2 PUSH1 0x20 ADD SWAP2 PUSH2 0x844 JUMP JUMPDEST DUP3 ADD SWAP2 SWAP1 PUSH1 0x0 MSTORE PUSH1 0x20 PUSH1 0x0 KECCAK256 SWAP1 JUMPDEST DUP2 SLOAD DUP2 MSTORE SWAP1 PUSH1 0x1 ADD SWAP1 PUSH1 0x20 ADD DUP1 DUP4 GT PUSH2 0x827 JUMPI DUP3 SWAP1 SUB PUSH1 0x1F AND DUP3 ADD SWAP2 JUMPDEST POP POP POP POP POP DUP2 JUMP JUMPDEST PUSH1 0x7 SLOAD DUP2 JUMP JUMPDEST PUSH1 0x0 PUSH1 0x40 MLOAD DUP1 PUSH1 0x40 ADD PUSH1 0x40 MSTORE DUP1 CALLVALUE DUP2 MSTORE PUSH1 0x20 ADD TIMESTAMP DUP2 MSTORE POP SWAP1 POP PUSH1 0x0 DUP1 CALLER PUSH20 0xFFFFFFFFFFFFFFFFFFFFFFFFFFFFFFFFFFFFFFFF AND PUSH20 0xFFFFFFFFFFFFFFFFFFFFFFFFFFFFFFFFFFFFFFFF AND DUP2 MSTORE PUSH1 0x20 ADD SWAP1 DUP2 MSTORE PUSH1 0x20 ADD PUSH1 0x0 KECCAK256 DUP2 SWAP1 DUP1 PUSH1 0x1 DUP2 SLOAD ADD DUP1 DUP3 SSTORE DUP1 SWAP2 POP POP PUSH1 0x1 SWAP1 SUB SWAP1 PUSH1 0x0 MSTORE PUSH1 0x20 PUSH1 0x0 KECCAK256 SWAP1 PUSH1 0x2 MUL ADD PUSH1 0x0 SWAP1 SWAP2 SWAP1 SWAP2 SWAP1 SWAP2 POP PUSH1 0x0 DUP3 ADD MLOAD DUP2 PUSH1 0x0 ADD SSTORE PUSH1 0x20 DUP3 ADD MLOAD DUP2 PUSH1 0x1 ADD SSTORE POP POP PUSH2 0x8FE CALLVALUE PUSH1 0x7 SLOAD PUSH2 0x96D SWAP1 SWAP2 SWAP1 PUSH4 0xFFFFFFFF AND JUMP JUMPDEST PUSH1 0x7 DUP2 SWAP1 SSTORE POP PUSH1 0x8 PUSH1 0x0 DUP2 SLOAD DUP1 SWAP3 SWAP2 SWAP1 PUSH2 0x917 SWAP1 PUSH2 0xC83 JUMP JUMPDEST SWAP2 SWAP1 POP SSTORE POP CALLER PUSH20 0xFFFFFFFFFFFFFFFFFFFFFFFFFFFFFFFFFFFFFFFF AND PUSH32 0x264F630D9EFA0D07053A31163641D9FCC0ADAFC9D9E76F1C37C2CE3A558D2C52 CALLVALUE PUSH1 0x40 MLOAD PUSH2 0x962 SWAP2 SWAP1 PUSH2 0x99C JUMP JUMPDEST PUSH1 0x40 MLOAD DUP1 SWAP2 SUB SWAP1 LOG2 POP JUMP JUMPDEST PUSH1 0x0 DUP2 DUP4 PUSH2 0x97B SWAP2 SWAP1 PUSH2 0xD89 JUMP JUMPDEST SWAP1 POP SWAP3 SWAP2 POP POP JUMP JUMPDEST PUSH1 0x0 DUP2 SWAP1 POP SWAP2 SWAP1 POP JUMP JUMPDEST PUSH2 0x996 DUP2 PUSH2 0x983 JUMP JUMPDEST DUP3 MSTORE POP POP JUMP JUMPDEST PUSH1 0x0 PUSH1 0x20 DUP3 ADD SWAP1 POP PUSH2 0x9B1 PUSH1 0x0 DUP4 ADD DUP5 PUSH2 0x98D JUMP JUMPDEST SWAP3 SWAP2 POP POP JUMP JUMPDEST PUSH1 0x0 DUP2 MLOAD SWAP1 POP SWAP2 SWAP1 POP JUMP JUMPDEST PUSH1 0x0 DUP3 DUP3 MSTORE PUSH1 0x20 DUP3 ADD SWAP1 POP SWAP3 SWAP2 POP POP JUMP JUMPDEST PUSH1 0x0 JUMPDEST DUP4 DUP2 LT ISZERO PUSH2 0x9F1 JUMPI DUP1 DUP3 ADD MLOAD DUP2 DUP5 ADD MSTORE PUSH1 0x20 DUP2 ADD SWAP1 POP PUSH2 0x9D6 JUMP JUMPDEST PUSH1 0x0 DUP5 DUP5 ADD MSTORE POP POP POP POP JUMP JUMPDEST PUSH1 0x0 PUSH1 0x1F NOT PUSH1 0x1F DUP4 ADD AND SWAP1 POP SWAP2 SWAP1 POP JUMP JUMPDEST PUSH1 0x0 PUSH2 0xA19 DUP3 PUSH2 0x9B7 JUMP JUMPDEST PUSH2 0xA23 DUP2 DUP6 PUSH2 0x9C2 JUMP JUMPDEST SWAP4 POP PUSH2 0xA33 DUP2 DUP6 PUSH1 0x20 DUP7 ADD PUSH2 0x9D3 JUMP JUMPDEST PUSH2 0xA3C DUP2 PUSH2 0x9FD JUMP JUMPDEST DUP5 ADD SWAP2 POP POP SWAP3 SWAP2 POP POP JUMP JUMPDEST PUSH1 0x0 PUSH1 0x20 DUP3 ADD SWAP1 POP DUP2 DUP2 SUB PUSH1 0x0 DUP4 ADD MSTORE PUSH2 0xA61 DUP2 DUP5 PUSH2 0xA0E JUMP JUMPDEST SWAP1 POP SWAP3 SWAP2 POP POP JUMP JUMPDEST PUSH1 0x0 DUP2 MLOAD SWAP1 POP SWAP2 SWAP1 POP JUMP JUMPDEST PUSH1 0x0 DUP3 DUP3 MSTORE PUSH1 0x20 DUP3 ADD SWAP1 POP SWAP3 SWAP2 POP POP JUMP JUMPDEST PUSH1 0x0 DUP2 SWAP1 POP PUSH1 0x20 DUP3 ADD SWAP1 POP SWAP2 SWAP1 POP JUMP JUMPDEST PUSH2 0xA9E DUP2 PUSH2 0x983 JUMP JUMPDEST DUP3 MSTORE POP POP JUMP JUMPDEST PUSH1 0x0 PUSH2 0xAB0 DUP4 DUP4 PUSH2 0xA95 JUMP JUMPDEST PUSH1 0x20 DUP4 ADD SWAP1 POP SWAP3 SWAP2 POP POP JUMP JUMPDEST PUSH1 0x0 PUSH1 0x20 DUP3 ADD SWAP1 POP SWAP2 SWAP1 POP JUMP JUMPDEST PUSH1 0x0 PUSH2 0xAD4 DUP3 PUSH2 0xA69 JUMP JUMPDEST PUSH2 0xADE DUP2 DUP6 PUSH2 0xA74 JUMP JUMPDEST SWAP4 POP PUSH2 0xAE9 DUP4 PUSH2 0xA85 JUMP JUMPDEST DUP1 PUSH1 0x0 JUMPDEST DUP4 DUP2 LT ISZERO PUSH2 0xB1A JUMPI DUP2 MLOAD PUSH2 0xB01 DUP9 DUP3 PUSH2 0xAA4 JUMP JUMPDEST SWAP8 POP PUSH2 0xB0C DUP4 PUSH2 0xABC JUMP JUMPDEST SWAP3 POP POP PUSH1 0x1 DUP2 ADD SWAP1 POP PUSH2 0xAED JUMP JUMPDEST POP DUP6 SWAP4 POP POP POP POP SWAP3 SWAP2 POP POP JUMP JUMPDEST PUSH1 0x0 PUSH1 0x40 DUP3 ADD SWAP1 POP DUP2 DUP2 SUB PUSH1 0x0 DUP4 ADD MSTORE PUSH2 0xB41 DUP2 DUP6 PUSH2 0xAC9 JUMP JUMPDEST SWAP1 POP DUP2 DUP2 SUB PUSH1 0x20 DUP4 ADD MSTORE PUSH2 0xB55 DUP2 DUP5 PUSH2 0xAC9 JUMP JUMPDEST SWAP1 POP SWAP4 SWAP3 POP POP POP JUMP JUMPDEST PUSH1 0x0 DUP1 REVERT JUMPDEST PUSH1 0x0 PUSH20 0xFFFFFFFFFFFFFFFFFFFFFFFFFFFFFFFFFFFFFFFF DUP3 AND SWAP1 POP SWAP2 SWAP1 POP JUMP JUMPDEST PUSH1 0x0 PUSH2 0xB8E DUP3 PUSH2 0xB63 JUMP JUMPDEST SWAP1 POP SWAP2 SWAP1 POP JUMP JUMPDEST PUSH2 0xB9E DUP2 PUSH2 0xB83 JUMP JUMPDEST DUP2 EQ PUSH2 0xBA9 JUMPI PUSH1 0x0 DUP1 REVERT JUMPDEST POP JUMP JUMPDEST PUSH1 0x0 DUP2 CALLDATALOAD SWAP1 POP PUSH2 0xBBB DUP2 PUSH2 0xB95 JUMP JUMPDEST SWAP3 SWAP2 POP POP JUMP JUMPDEST PUSH1 0x0 PUSH1 0x20 DUP3 DUP5 SUB SLT ISZERO PUSH2 0xBD7 JUMPI PUSH2 0xBD6 PUSH2 0xB5E JUMP JUMPDEST JUMPDEST PUSH1 0x0 PUSH2 0xBE5 DUP5 DUP3 DUP6 ADD PUSH2 0xBAC JUMP JUMPDEST SWAP2 POP POP SWAP3 SWAP2 POP POP JUMP JUMPDEST PUSH2 0xBF7 DUP2 PUSH2 0xB83 JUMP JUMPDEST DUP3 MSTORE POP POP JUMP JUMPDEST PUSH1 0x0 PUSH1 0x20 DUP3 ADD SWAP1 POP PUSH2 0xC12 PUSH1 0x0 DUP4 ADD DUP5 PUSH2 0xBEE JUMP JUMPDEST SWAP3 SWAP2 POP POP JUMP JUMPDEST PUSH1 0x0 PUSH2 0xC23 DUP3 PUSH2 0xB63 JUMP JUMPDEST SWAP1 POP SWAP2 SWAP1 POP JUMP JUMPDEST PUSH2 0xC33 DUP2 PUSH2 0xC18 JUMP JUMPDEST DUP3 MSTORE POP POP JUMP JUMPDEST PUSH1 0x0 PUSH1 0x20 DUP3 ADD SWAP1 POP PUSH2 0xC4E PUSH1 0x0 DUP4 ADD DUP5 PUSH2 0xC2A JUMP JUMPDEST SWAP3 SWAP2 POP POP JUMP JUMPDEST PUSH32 0x4E487B7100000000000000000000000000000000000000000000000000000000 PUSH1 0x0 MSTORE PUSH1 0x11 PUSH1 0x4 MSTORE PUSH1 0x24 PUSH1 0x0 REVERT JUMPDEST PUSH1 0x0 PUSH2 0xC8E DUP3 PUSH2 0x983 JUMP JUMPDEST SWAP2 POP PUSH32 0xFFFFFFFFFFFFFFFFFFFFFFFFFFFFFFFFFFFFFFFFFFFFFFFFFFFFFFFFFFFFFFFF DUP3 SUB PUSH2 0xCC0 JUMPI PUSH2 0xCBF PUSH2 0xC54 JUMP JUMPDEST JUMPDEST PUSH1 0x1 DUP3 ADD SWAP1 POP SWAP2 SWAP1 POP JUMP JUMPDEST PUSH32 0x4E487B7100000000000000000000000000000000000000000000000000000000 PUSH1 0x0 MSTORE PUSH1 0x22 PUSH1 0x4 MSTORE PUSH1 0x24 PUSH1 0x0 REVERT JUMPDEST PUSH1 0x0 PUSH1 0x2 DUP3 DIV SWAP1 POP PUSH1 0x1 DUP3 AND DUP1 PUSH2 0xD12 JUMPI PUSH1 0x7F DUP3 AND SWAP2 POP JUMPDEST PUSH1 0x20 DUP3 LT DUP2 SUB PUSH2 0xD25 JUMPI PUSH2 0xD24 PUSH2 0xCCB JUMP JUMPDEST JUMPDEST POP SWAP2 SWAP1 POP JUMP JUMPDEST PUSH32 0x4E487B7100000000000000000000000000000000000000000000000000000000 PUSH1 0x0 MSTORE PUSH1 0x41 PUSH1 0x4 MSTORE PUSH1 0x24 PUSH1 0x0 REVERT JUMPDEST PUSH32 0x4E487B7100000000000000000000000000000000000000000000000000000000 PUSH1 0x0 MSTORE PUSH1 0x32 PUSH1 0x4 MSTORE PUSH1 0x24 PUSH1 0x0 REVERT JUMPDEST PUSH1 0x0 PUSH2 0xD94 DUP3 PUSH2 0x983 JUMP JUMPDEST SWAP2 POP PUSH2 0xD9F DUP4 PUSH2 0x983 JUMP JUMPDEST SWAP3 POP DUP3 DUP3 ADD SWAP1 POP DUP1 DUP3 GT ISZERO PUSH2 0xDB7 JUMPI PUSH2 0xDB6 PUSH2 0xC54 JUMP JUMPDEST JUMPDEST SWAP3 SWAP2 POP POP JUMP INVALID LOG2 PUSH5 0x6970667358 0x22 SLT KECCAK256 PUSH8 0x3D38F0E2801CA4EC 0xB8 0x23 0xCB 0xCD 0x2A NOT 0xD3 PUSH11 0x5303716FECC45F8E36A5C1 NUMBER PUSH24 0xE3364736F6C63430008120033A26469706673582212201D SWAP16 0xED BASEFEE 0xCE 0x5F 0xB4 0xAD 0xC8 PUSH5 0x55979D2E7A PUSH15 0x95A55FC9EE4421687C76BEEB0B2856 0xE8 PUSH5 0x736F6C6343 STOP ADDMOD SLT STOP CALLER "},"methodIdentifiers":{"createFundraiser(string,string,string,string,address)":"11d752ad","createFundraiserthree()":"f720cf73","createFundraisertwo(string)":"0d8b3769","createFundraisertwo(string,string,string,string,address)":"7f4dc6b0","fundraisers(uint256,uint256)":"704914f8","fundraisersCount()":"9d3b4355","set(string)":"4ed3885e","storedData()":"2a1afcd9"}}}}}