{
  "_format": "hh-sol-artifact-1",
  "contractName": "Fundraiser",
  "sourceName": "contracts/Fundraiser.sol",
  "abi": [
    {
      "inputs": [
        {
          "internalType": "string",
          "name": "_name",
          "type": "string"
        },
        {
          "internalType": "string",
          "name": "_url",
          "type": "string"
        },
        {
          "internalType": "string",
          "name": "_imageURL",
          "type": "string"
        },
        {
          "internalType": "string",
          "name": "_description",
          "type": "string"
        },
        {
          "internalType": "address payable",
          "name": "_beneficiary",
          "type": "address"
        },
        {
          "internalType": "address",
          "name": "_owner",
          "type": "address"
        }
      ],
      "stateMutability": "nonpayable",
      "type": "constructor"
    },
    {
      "anonymous": false,
      "inputs": [
        {
          "indexed": true,
          "internalType": "address",
          "name": "donor",
          "type": "address"
        },
        {
          "indexed": false,
          "internalType": "uint256",
          "name": "value",
          "type": "uint256"
        }
      ],
      "name": "DonationReceived",
      "type": "event"
    },
    {
      "anonymous": false,
      "inputs": [
        {
          "indexed": false,
          "internalType": "uint256",
          "name": "amount",
          "type": "uint256"
        }
      ],
      "name": "Withdraw",
      "type": "event"
    },
    {
      "inputs": [],
      "name": "beneficiary",
      "outputs": [
        {
          "internalType": "address payable",
          "name": "",
          "type": "address"
        }
      ],
      "stateMutability": "view",
      "type": "function"
    },
    {
      "inputs": [],
      "name": "description",
      "outputs": [
        {
          "internalType": "string",
          "name": "",
          "type": "string"
        }
      ],
      "stateMutability": "view",
      "type": "function"
    },
    {
      "inputs": [],
      "name": "donate",
      "outputs": [],
      "stateMutability": "payable",
      "type": "function"
    },
    {
      "inputs": [],
      "name": "donationsCount",
      "outputs": [
        {
          "internalType": "uint256",
          "name": "",
          "type": "uint256"
        }
      ],
      "stateMutability": "view",
      "type": "function"
    },
    {
      "inputs": [],
      "name": "imageURL",
      "outputs": [
        {
          "internalType": "string",
          "name": "",
          "type": "string"
        }
      ],
      "stateMutability": "view",
      "type": "function"
    },
    {
      "inputs": [],
      "name": "myDonations",
      "outputs": [
        {
          "internalType": "uint256[]",
          "name": "values",
          "type": "uint256[]"
        },
        {
          "internalType": "uint256[]",
          "name": "dates",
          "type": "uint256[]"
        }
      ],
      "stateMutability": "view",
      "type": "function"
    },
    {
      "inputs": [],
      "name": "myDonationsCount",
      "outputs": [
        {
          "internalType": "uint256",
          "name": "",
          "type": "uint256"
        }
      ],
      "stateMutability": "view",
      "type": "function"
    },
    {
      "inputs": [],
      "name": "name",
      "outputs": [
        {
          "internalType": "string",
          "name": "",
          "type": "string"
        }
      ],
      "stateMutability": "view",
      "type": "function"
    },
    {
      "inputs": [],
      "name": "owner",
      "outputs": [
        {
          "internalType": "address",
          "name": "",
          "type": "address"
        }
      ],
      "stateMutability": "view",
      "type": "function"
    },
    {
      "inputs": [],
      "name": "receiveFunds",
      "outputs": [],
      "stateMutability": "payable",
      "type": "function"
    },
    {
      "inputs": [
        {
          "internalType": "address payable",
          "name": "_beneficiary",
          "type": "address"
        }
      ],
      "name": "setBeneficiary",
      "outputs": [],
      "stateMutability": "nonpayable",
      "type": "function"
    },
    {
      "inputs": [],
      "name": "totalDonations",
      "outputs": [
        {
          "internalType": "uint256",
          "name": "",
          "type": "uint256"
        }
      ],
      "stateMutability": "view",
      "type": "function"
    },
    {
      "inputs": [],
      "name": "url",
      "outputs": [
        {
          "internalType": "string",
          "name": "",
          "type": "string"
        }
      ],
      "stateMutability": "view",
      "type": "function"
    },
    {
      "inputs": [],
      "name": "withdraw",
      "outputs": [],
      "stateMutability": "nonpayable",
      "type": "function"
    }
  ],
  "bytecode": "0x60806040523480156200001157600080fd5b50604051620015973803806200159783398181016040528101906200003791906200034a565b8560019081620000489190620006ad565b5084600290816200005a9190620006ad565b5083600390816200006c9190620006ad565b5082600490816200007e9190620006ad565b5081600560006101000a81548173ffffffffffffffffffffffffffffffffffffffff021916908373ffffffffffffffffffffffffffffffffffffffff16021790555080600660006101000a81548173ffffffffffffffffffffffffffffffffffffffff021916908373ffffffffffffffffffffffffffffffffffffffff16021790555050505050505062000794565b6000604051905090565b600080fd5b600080fd5b600080fd5b600080fd5b6000601f19601f8301169050919050565b7f4e487b7100000000000000000000000000000000000000000000000000000000600052604160045260246000fd5b62000176826200012b565b810181811067ffffffffffffffff821117156200019857620001976200013c565b5b80604052505050565b6000620001ad6200010d565b9050620001bb82826200016b565b919050565b600067ffffffffffffffff821115620001de57620001dd6200013c565b5b620001e9826200012b565b9050602081019050919050565b60005b8381101562000216578082015181840152602081019050620001f9565b60008484015250505050565b6000620002396200023384620001c0565b620001a1565b90508281526020810184848401111562000258576200025762000126565b5b62000265848285620001f6565b509392505050565b600082601f83011262000285576200028462000121565b5b81516200029784826020860162000222565b91505092915050565b600073ffffffffffffffffffffffffffffffffffffffff82169050919050565b6000620002cd82620002a0565b9050919050565b620002df81620002c0565b8114620002eb57600080fd5b50565b600081519050620002ff81620002d4565b92915050565b60006200031282620002a0565b9050919050565b620003248162000305565b81146200033057600080fd5b50565b600081519050620003448162000319565b92915050565b60008060008060008060c087890312156200036a576200036962000117565b5b600087015167ffffffffffffffff8111156200038b576200038a6200011c565b5b6200039989828a016200026d565b965050602087015167ffffffffffffffff811115620003bd57620003bc6200011c565b5b620003cb89828a016200026d565b955050604087015167ffffffffffffffff811115620003ef57620003ee6200011c565b5b620003fd89828a016200026d565b945050606087015167ffffffffffffffff8111156200042157620004206200011c565b5b6200042f89828a016200026d565b93505060806200044289828a01620002ee565b92505060a06200045589828a0162000333565b9150509295509295509295565b600081519050919050565b7f4e487b7100000000000000000000000000000000000000000000000000000000600052602260045260246000fd5b60006002820490506001821680620004b557607f821691505b602082108103620004cb57620004ca6200046d565b5b50919050565b60008190508160005260206000209050919050565b60006020601f8301049050919050565b600082821b905092915050565b600060088302620005357fffffffffffffffffffffffffffffffffffffffffffffffffffffffffffffffff82620004f6565b620005418683620004f6565b95508019841693508086168417925050509392505050565b6000819050919050565b6000819050919050565b60006200058e62000588620005828462000559565b62000563565b62000559565b9050919050565b6000819050919050565b620005aa836200056d565b620005c2620005b98262000595565b84845462000503565b825550505050565b600090565b620005d9620005ca565b620005e68184846200059f565b505050565b5b818110156200060e5762000602600082620005cf565b600181019050620005ec565b5050565b601f8211156200065d576200062781620004d1565b6200063284620004e6565b8101602085101562000642578190505b6200065a6200065185620004e6565b830182620005eb565b50505b505050565b600082821c905092915050565b6000620006826000198460080262000662565b1980831691505092915050565b60006200069d83836200066f565b9150826002028217905092915050565b620006b88262000462565b67ffffffffffffffff811115620006d457620006d36200013c565b5b620006e082546200049c565b620006ed82828562000612565b600060209050601f83116001811462000725576000841562000710578287015190505b6200071c85826200068f565b8655506200078c565b601f1984166200073586620004d1565b60005b828110156200075f5784890151825560018201915060208501945060208101905062000738565b868310156200077f57848901516200077b601f8916826200066f565b8355505b6001600288020188555050505b505050505050565b610df380620007a46000396000f3fe6080604052600436106100dc5760003560e01c80633ccfd60b1161007f5780638da5cb5b116100595780638da5cb5b14610259578063b90497e014610284578063de2ed893146102af578063ed88c68e146102da576100dc565b80633ccfd60b146101ec5780635600f04f146102035780637284e4161461022e576100dc565b80631a57f7b4116100bb5780631a57f7b4146101415780631c31f7101461016d5780631f5225951461019657806338af3eed146101c1576100dc565b80625c33e1146100e15780630180b97c146100eb57806306fdde0314610116575b600080fd5b6100e96102e4565b005b3480156100f757600080fd5b50610100610319565b60405161010d919061099c565b60405180910390f35b34801561012257600080fd5b5061012b610362565b6040516101389190610a47565b60405180910390f35b34801561014d57600080fd5b506101566103f0565b604051610164929190610b27565b60405180910390f35b34801561017957600080fd5b50610194600480360381019061018f9190610bc1565b610564565b005b3480156101a257600080fd5b506101ab6105a8565b6040516101b8919061099c565b60405180910390f35b3480156101cd57600080fd5b506101d66105ae565b6040516101e39190610bfd565b60405180910390f35b3480156101f857600080fd5b506102016105d4565b005b34801561020f57600080fd5b5061021861067c565b6040516102259190610a47565b60405180910390f35b34801561023a57600080fd5b5061024361070a565b6040516102509190610a47565b60405180910390f35b34801561026557600080fd5b5061026e610798565b60405161027b9190610c39565b60405180910390f35b34801561029057600080fd5b506102996107be565b6040516102a69190610a47565b60405180910390f35b3480156102bb57600080fd5b506102c461084c565b6040516102d1919061099c565b60405180910390f35b6102e2610852565b005b6102f93460075461096d90919063ffffffff16565b6007819055506008600081548092919061031290610c83565b9190505550565b60008060003373ffffffffffffffffffffffffffffffffffffffff1673ffffffffffffffffffffffffffffffffffffffff16815260200190815260200160002080549050905090565b6001805461036f90610cfa565b80601f016020809104026020016040519081016040528092919081815260200182805461039b90610cfa565b80156103e85780601f106103bd576101008083540402835291602001916103e8565b820191906000526020600020905b8154815290600101906020018083116103cb57829003601f168201915b505050505081565b60608060006103fd610319565b90508067ffffffffffffffff81111561041957610418610d2b565b5b6040519080825280602002602001820160405280156104475781602001602082028036833780820191505090505b5092508067ffffffffffffffff81111561046457610463610d2b565b5b6040519080825280602002602001820160405280156104925781602001602082028036833780820191505090505b50915060005b8181101561055e5760008060003373ffffffffffffffffffffffffffffffffffffffff1673ffffffffffffffffffffffffffffffffffffffff16815260200190815260200160002082815481106104f2576104f1610d5a565b5b90600052602060002090600202019050806000015485838151811061051a57610519610d5a565b5b602002602001018181525050806001015484838151811061053e5761053d610d5a565b5b60200260200101818152505050808061055690610c83565b915050610498565b50509091565b80600560006101000a81548173ffffffffffffffffffffffffffffffffffffffff021916908373ffffffffffffffffffffffffffffffffffffffff16021790555050565b60085481565b600560009054906101000a900473ffffffffffffffffffffffffffffffffffffffff1681565b6000479050600560009054906101000a900473ffffffffffffffffffffffffffffffffffffffff1673ffffffffffffffffffffffffffffffffffffffff166108fc829081150290604051600060405180830381858888f19350505050158015610641573d6000803e3d6000fd5b507f5b6b431d4476a211bb7d41c20d1aab9ae2321deee0d20be3d9fc9b1093fa6e3d81604051610671919061099c565b60405180910390a150565b6002805461068990610cfa565b80601f01602080910402602001604051908101604052809291908181526020018280546106b590610cfa565b80156107025780601f106106d757610100808354040283529160200191610702565b820191906000526020600020905b8154815290600101906020018083116106e557829003601f168201915b505050505081565b6004805461071790610cfa565b80601f016020809104026020016040519081016040528092919081815260200182805461074390610cfa565b80156107905780601f1061076557610100808354040283529160200191610790565b820191906000526020600020905b81548152906001019060200180831161077357829003601f168201915b505050505081565b600660009054906101000a900473ffffffffffffffffffffffffffffffffffffffff1681565b600380546107cb90610cfa565b80601f01602080910402602001604051908101604052809291908181526020018280546107f790610cfa565b80156108445780601f1061081957610100808354040283529160200191610844565b820191906000526020600020905b81548152906001019060200180831161082757829003601f168201915b505050505081565b60075481565b600060405180604001604052803481526020014281525090506000803373ffffffffffffffffffffffffffffffffffffffff1673ffffffffffffffffffffffffffffffffffffffff168152602001908152602001600020819080600181540180825580915050600190039060005260206000209060020201600090919091909150600082015181600001556020820151816001015550506108fe3460075461096d90919063ffffffff16565b6007819055506008600081548092919061091790610c83565b91905055503373ffffffffffffffffffffffffffffffffffffffff167f264f630d9efa0d07053a31163641d9fcc0adafc9d9e76f1c37c2ce3a558d2c5234604051610962919061099c565b60405180910390a250565b6000818361097b9190610d89565b905092915050565b6000819050919050565b61099681610983565b82525050565b60006020820190506109b1600083018461098d565b92915050565b600081519050919050565b600082825260208201905092915050565b60005b838110156109f15780820151818401526020810190506109d6565b60008484015250505050565b6000601f19601f8301169050919050565b6000610a19826109b7565b610a2381856109c2565b9350610a338185602086016109d3565b610a3c816109fd565b840191505092915050565b60006020820190508181036000830152610a618184610a0e565b905092915050565b600081519050919050565b600082825260208201905092915050565b6000819050602082019050919050565b610a9e81610983565b82525050565b6000610ab08383610a95565b60208301905092915050565b6000602082019050919050565b6000610ad482610a69565b610ade8185610a74565b9350610ae983610a85565b8060005b83811015610b1a578151610b018882610aa4565b9750610b0c83610abc565b925050600181019050610aed565b5085935050505092915050565b60006040820190508181036000830152610b418185610ac9565b90508181036020830152610b558184610ac9565b90509392505050565b600080fd5b600073ffffffffffffffffffffffffffffffffffffffff82169050919050565b6000610b8e82610b63565b9050919050565b610b9e81610b83565b8114610ba957600080fd5b50565b600081359050610bbb81610b95565b92915050565b600060208284031215610bd757610bd6610b5e565b5b6000610be584828501610bac565b91505092915050565b610bf781610b83565b82525050565b6000602082019050610c126000830184610bee565b92915050565b6000610c2382610b63565b9050919050565b610c3381610c18565b82525050565b6000602082019050610c4e6000830184610c2a565b92915050565b7f4e487b7100000000000000000000000000000000000000000000000000000000600052601160045260246000fd5b6000610c8e82610983565b91507fffffffffffffffffffffffffffffffffffffffffffffffffffffffffffffffff8203610cc057610cbf610c54565b5b600182019050919050565b7f4e487b7100000000000000000000000000000000000000000000000000000000600052602260045260246000fd5b60006002820490506001821680610d1257607f821691505b602082108103610d2557610d24610ccb565b5b50919050565b7f4e487b7100000000000000000000000000000000000000000000000000000000600052604160045260246000fd5b7f4e487b7100000000000000000000000000000000000000000000000000000000600052603260045260246000fd5b6000610d9482610983565b9150610d9f83610983565b9250828201905080821115610db757610db6610c54565b5b9291505056fea2646970667358221220673d38f0e2801ca4ecb823cbcd2a19d36a5303716fecc45f8e36a5c143770e3364736f6c63430008120033",
  "linkReferences": {},
  "deployedLinkReferences": {}
}