{
  "contractName": "Fundraiser",
  "abi": [
    {
      "inputs": [
        {
          "internalType": "string",
          "name": "_name",
          "type": "string"
        },
        {
          "internalType": "string",
          "name": "_url",
          "type": "string"
        },
        {
          "internalType": "string",
          "name": "_imageURL",
          "type": "string"
        },
        {
          "internalType": "string",
          "name": "_description",
          "type": "string"
        },
        {
          "internalType": "address payable",
          "name": "_beneficiary",
          "type": "address"
        },
        {
          "internalType": "address",
          "name": "_owner",
          "type": "address"
        }
      ],
      "payable": false,
      "stateMutability": "nonpayable",
      "type": "constructor"
    },
    {
      "anonymous": false,
      "inputs": [
        {
          "indexed": true,
          "internalType": "address",
          "name": "donor",
          "type": "address"
        },
        {
          "indexed": false,
          "internalType": "uint256",
          "name": "value",
          "type": "uint256"
        }
      ],
      "name": "DonationReceived",
      "type": "event"
    },
    {
      "anonymous": false,
      "inputs": [
        {
          "indexed": false,
          "internalType": "uint256",
          "name": "amount",
          "type": "uint256"
        }
      ],
      "name": "Withdraw",
      "type": "event"
    },
    {
      "payable": true,
      "stateMutability": "payable",
      "type": "fallback"
    },
    {
      "constant": true,
      "inputs": [],
      "name": "beneficiary",
      "outputs": [
        {
          "internalType": "address payable",
          "name": "",
          "type": "address"
        }
      ],
      "payable": false,
      "stateMutability": "view",
      "type": "function"
    },
    {
      "constant": true,
      "inputs": [],
      "name": "description",
      "outputs": [
        {
          "internalType": "string",
          "name": "",
          "type": "string"
        }
      ],
      "payable": false,
      "stateMutability": "view",
      "type": "function"
    },
    {
      "constant": true,
      "inputs": [],
      "name": "donationsCount",
      "outputs": [
        {
          "internalType": "uint256",
          "name": "",
          "type": "uint256"
        }
      ],
      "payable": false,
      "stateMutability": "view",
      "type": "function"
    },
    {
      "constant": true,
      "inputs": [],
      "name": "imageURL",
      "outputs": [
        {
          "internalType": "string",
          "name": "",
          "type": "string"
        }
      ],
      "payable": false,
      "stateMutability": "view",
      "type": "function"
    },
    {
      "constant": true,
      "inputs": [],
      "name": "name",
      "outputs": [
        {
          "internalType": "string",
          "name": "",
          "type": "string"
        }
      ],
      "payable": false,
      "stateMutability": "view",
      "type": "function"
    },
    {
      "constant": true,
      "inputs": [],
      "name": "owner",
      "outputs": [
        {
          "internalType": "address",
          "name": "",
          "type": "address"
        }
      ],
      "payable": false,
      "stateMutability": "view",
      "type": "function"
    },
    {
      "constant": true,
      "inputs": [],
      "name": "totalDonations",
      "outputs": [
        {
          "internalType": "uint256",
          "name": "",
          "type": "uint256"
        }
      ],
      "payable": false,
      "stateMutability": "view",
      "type": "function"
    },
    {
      "constant": true,
      "inputs": [],
      "name": "url",
      "outputs": [
        {
          "internalType": "string",
          "name": "",
          "type": "string"
        }
      ],
      "payable": false,
      "stateMutability": "view",
      "type": "function"
    },
    {
      "constant": false,
      "inputs": [
        {
          "internalType": "address payable",
          "name": "_beneficiary",
          "type": "address"
        }
      ],
      "name": "setBeneficiary",
      "outputs": [],
      "payable": false,
      "stateMutability": "nonpayable",
      "type": "function"
    },
    {
      "constant": true,
      "inputs": [],
      "name": "myDonationsCount",
      "outputs": [
        {
          "internalType": "uint256",
          "name": "",
          "type": "uint256"
        }
      ],
      "payable": false,
      "stateMutability": "view",
      "type": "function"
    },
    {
      "constant": false,
      "inputs": [],
      "name": "donate",
      "outputs": [],
      "payable": true,
      "stateMutability": "payable",
      "type": "function"
    },
    {
      "constant": true,
      "inputs": [],
      "name": "myDonations",
      "outputs": [
        {
          "internalType": "uint256[]",
          "name": "values",
          "type": "uint256[]"
        },
        {
          "internalType": "uint256[]",
          "name": "dates",
          "type": "uint256[]"
        }
      ],
      "payable": false,
      "stateMutability": "view",
      "type": "function"
    },
    {
      "constant": false,
      "inputs": [],
      "name": "withdraw",
      "outputs": [],
      "payable": false,
      "stateMutability": "nonpayable",
      "type": "function"
    }
  ],
  "bytecode": "0x60806040523480156200001157600080fd5b50604051620011a7380380620011a7833981810160405260c08110156200003757600080fd5b81019080805160405193929190846401000000008211156200005857600080fd5b838201915060208201858111156200006f57600080fd5b82518660018202830111640100000000821117156200008d57600080fd5b8083526020830192505050908051906020019080838360005b83811015620000c3578082015181840152602081019050620000a6565b50505050905090810190601f168015620000f15780820380516001836020036101000a031916815260200191505b50604052602001805160405193929190846401000000008211156200011557600080fd5b838201915060208201858111156200012c57600080fd5b82518660018202830111640100000000821117156200014a57600080fd5b8083526020830192505050908051906020019080838360005b838110156200018057808201518184015260208101905062000163565b50505050905090810190601f168015620001ae5780820380516001836020036101000a031916815260200191505b5060405260200180516040519392919084640100000000821115620001d257600080fd5b83820191506020820185811115620001e957600080fd5b82518660018202830111640100000000821117156200020757600080fd5b8083526020830192505050908051906020019080838360005b838110156200023d57808201518184015260208101905062000220565b50505050905090810190601f1680156200026b5780820380516001836020036101000a031916815260200191505b50604052602001805160405193929190846401000000008211156200028f57600080fd5b83820191506020820185811115620002a657600080fd5b8251866001820283011164010000000082111715620002c457600080fd5b8083526020830192505050908051906020019080838360005b83811015620002fa578082015181840152602081019050620002dd565b50505050905090810190601f168015620003285780820380516001836020036101000a031916815260200191505b50604052602001805190602001909291908051906020019092919050505085600190805190602001906200035e92919062000438565b5084600290805190602001906200037792919062000438565b5083600390805190602001906200039092919062000438565b508260049080519060200190620003a992919062000438565b5081600560006101000a81548173ffffffffffffffffffffffffffffffffffffffff021916908373ffffffffffffffffffffffffffffffffffffffff16021790555080600660006101000a81548173ffffffffffffffffffffffffffffffffffffffff021916908373ffffffffffffffffffffffffffffffffffffffff160217905550505050505050620004e7565b828054600181600116156101000203166002900490600052602060002090601f016020900481019282601f106200047b57805160ff1916838001178555620004ac565b82800160010185558215620004ac579182015b82811115620004ab5782518255916020019190600101906200048e565b5b509050620004bb9190620004bf565b5090565b620004e491905b80821115620004e0576000816000905550600101620004c6565b5090565b90565b610cb080620004f76000396000f3fe6080604052600436106100c25760003560e01c80633ccfd60b1161007f5780638da5cb5b116100595780638da5cb5b1461046a578063b90497e0146104c1578063de2ed89314610551578063ed88c68e1461057c576100c2565b80633ccfd60b146103335780635600f04f1461034a5780637284e416146103da576100c2565b80630180b97c146100f157806306fdde031461011c5780631a57f7b4146101ac5780631c31f710146102605780631f522595146102b157806338af3eed146102dc575b6100d73460075461058690919063ffffffff16565b600781905550600860008154809291906001019190505550005b3480156100fd57600080fd5b5061010661060e565b6040518082815260200191505060405180910390f35b34801561012857600080fd5b50610131610657565b6040518080602001828103825283818151815260200191508051906020019080838360005b83811015610171578082015181840152602081019050610156565b50505050905090810190601f16801561019e5780820380516001836020036101000a031916815260200191505b509250505060405180910390f35b3480156101b857600080fd5b506101c16106f5565b604051808060200180602001838103835285818151815260200191508051906020019060200280838360005b838110156102085780820151818401526020810190506101ed565b50505050905001838103825284818151815260200191508051906020019060200280838360005b8381101561024a57808201518184015260208101905061022f565b5050505090500194505050505060405180910390f35b34801561026c57600080fd5b506102af6004803603602081101561028357600080fd5b81019080803573ffffffffffffffffffffffffffffffffffffffff169060200190929190505050610825565b005b3480156102bd57600080fd5b506102c6610869565b6040518082815260200191505060405180910390f35b3480156102e857600080fd5b506102f161086f565b604051808273ffffffffffffffffffffffffffffffffffffffff1673ffffffffffffffffffffffffffffffffffffffff16815260200191505060405180910390f35b34801561033f57600080fd5b50610348610895565b005b34801561035657600080fd5b5061035f61093d565b6040518080602001828103825283818151815260200191508051906020019080838360005b8381101561039f578082015181840152602081019050610384565b50505050905090810190601f1680156103cc5780820380516001836020036101000a031916815260200191505b509250505060405180910390f35b3480156103e657600080fd5b506103ef6109db565b6040518080602001828103825283818151815260200191508051906020019080838360005b8381101561042f578082015181840152602081019050610414565b50505050905090810190601f16801561045c5780820380516001836020036101000a031916815260200191505b509250505060405180910390f35b34801561047657600080fd5b5061047f610a79565b604051808273ffffffffffffffffffffffffffffffffffffffff1673ffffffffffffffffffffffffffffffffffffffff16815260200191505060405180910390f35b3480156104cd57600080fd5b506104d6610a9f565b6040518080602001828103825283818151815260200191508051906020019080838360005b838110156105165780820151818401526020810190506104fb565b50505050905090810190601f1680156105435780820380516001836020036101000a031916815260200191505b509250505060405180910390f35b34801561055d57600080fd5b50610566610b3d565b6040518082815260200191505060405180910390f35b610584610b43565b005b600080828401905083811015610604576040517f08c379a000000000000000000000000000000000000000000000000000000000815260040180806020018281038252601b8152602001807f536166654d6174683a206164646974696f6e206f766572666c6f77000000000081525060200191505060405180910390fd5b8091505092915050565b60008060003373ffffffffffffffffffffffffffffffffffffffff1673ffffffffffffffffffffffffffffffffffffffff16815260200190815260200160002080549050905090565b60018054600181600116156101000203166002900480601f0160208091040260200160405190810160405280929190818152602001828054600181600116156101000203166002900480156106ed5780601f106106c2576101008083540402835291602001916106ed565b820191906000526020600020905b8154815290600101906020018083116106d057829003601f168201915b505050505081565b606080600061070261060e565b9050806040519080825280602002602001820160405280156107335781602001602082028038833980820191505090505b509250806040519080825280602002602001820160405280156107655781602001602082028038833980820191505090505b50915060008090505b818110156108195760008060003373ffffffffffffffffffffffffffffffffffffffff1673ffffffffffffffffffffffffffffffffffffffff16815260200190815260200160002082815481106107c157fe5b9060005260206000209060020201905080600001548583815181106107e257fe5b60200260200101818152505080600101548483815181106107ff57fe5b60200260200101818152505050808060010191505061076e565b50828292509250509091565b80600560006101000a81548173ffffffffffffffffffffffffffffffffffffffff021916908373ffffffffffffffffffffffffffffffffffffffff16021790555050565b60085481565b600560009054906101000a900473ffffffffffffffffffffffffffffffffffffffff1681565b6000479050600560009054906101000a900473ffffffffffffffffffffffffffffffffffffffff1673ffffffffffffffffffffffffffffffffffffffff166108fc829081150290604051600060405180830381858888f19350505050158015610902573d6000803e3d6000fd5b507f5b6b431d4476a211bb7d41c20d1aab9ae2321deee0d20be3d9fc9b1093fa6e3d816040518082815260200191505060405180910390a150565b60028054600181600116156101000203166002900480601f0160208091040260200160405190810160405280929190818152602001828054600181600116156101000203166002900480156109d35780601f106109a8576101008083540402835291602001916109d3565b820191906000526020600020905b8154815290600101906020018083116109b657829003601f168201915b505050505081565b60048054600181600116156101000203166002900480601f016020809104026020016040519081016040528092919081815260200182805460018160011615610100020316600290048015610a715780601f10610a4657610100808354040283529160200191610a71565b820191906000526020600020905b815481529060010190602001808311610a5457829003601f168201915b505050505081565b600660009054906101000a900473ffffffffffffffffffffffffffffffffffffffff1681565b60038054600181600116156101000203166002900480601f016020809104026020016040519081016040528092919081815260200182805460018160011615610100020316600290048015610b355780601f10610b0a57610100808354040283529160200191610b35565b820191906000526020600020905b815481529060010190602001808311610b1857829003601f168201915b505050505081565b60075481565b610b4b610c61565b60405180604001604052803481526020014281525090506000803373ffffffffffffffffffffffffffffffffffffffff1673ffffffffffffffffffffffffffffffffffffffff16815260200190815260200160002081908060018154018082558091505090600182039060005260206000209060020201600090919290919091506000820151816000015560208201518160010155505050610bf83460075461058690919063ffffffff16565b6007819055506008600081548092919060010191905055503373ffffffffffffffffffffffffffffffffffffffff167f264f630d9efa0d07053a31163641d9fcc0adafc9d9e76f1c37c2ce3a558d2c52346040518082815260200191505060405180910390a250565b60405180604001604052806000815260200160008152509056fea265627a7a7231582006988eaa9073ecf461d2043f3880d29fda6f623f317d0fce662f3501ae8a95a164736f6c63430005100032",
  "source": "pragma solidity >=0.5.16;\n\nimport \"openzeppelin-solidity/contracts/ownership/Ownable.sol\";\nimport \"openzeppelin-solidity/contracts/math/SafeMath.sol\";\n\n\ncontract Fundraiser {\n    using SafeMath for uint256;\n\n\n    struct Donation {\n        uint256 value;\n        uint256 date;\n    }\n\n   mapping(address => Donation[]) private _donations;\n\n   event DonationReceived(address indexed donor, uint256 value);\n   event Withdraw(uint256 amount);\n\n\n   string public name;\n   string public url;\n   string public imageURL;\n   string public description;\n   address payable public beneficiary;\n   address public owner;\n\n\n   uint256 public totalDonations;\n   uint256 public donationsCount;\n  \n\n    constructor(\n        string memory _name,\n        string memory _url,\n        string memory _imageURL,\n        string memory _description,\n        address payable _beneficiary,\n        address _owner\n   )\n\n        public\n   {\n        name = _name;\n        url = _url;\n        imageURL = _imageURL;\n        description = _description;\n        beneficiary = _beneficiary;\n\towner = _owner;\n        // declaration error: undeclared identifier        \n        //_transferOwnership( _owner);\n  }\n\n\n\n//    function setBeneficiary(address payable _beneficiary) public onlyOwner {\n\n\n    function setBeneficiary(address payable _beneficiary) public  {\n\n        beneficiary = _beneficiary;\n    }\n\n    function myDonationsCount() public view returns(uint256) {\n        return _donations[msg.sender].length;\n    }\n\n\n    function donate() public payable {\n        Donation memory donation = Donation({\n            value: msg.value,\n            date: block.timestamp\n        });\n        _donations[msg.sender].push(donation);\n        totalDonations = totalDonations.add(msg.value);\n        donationsCount++;\n\n        emit DonationReceived(msg.sender, msg.value);\n    }\n    function myDonations() public view returns(\n        uint256[] memory values,\n        uint256[] memory dates\n    )\n    {\n        uint256 count = myDonationsCount();\n        values = new uint256[](count);\n        dates = new uint256[](count);\n\n        for (uint256 i = 0; i < count; i++) {\n            Donation storage donation = _donations[msg.sender][i];\n            values[i] = donation.value;\n            dates[i] = donation.date;\n        }\n\n        return (values, dates);\n    }\n\n//    function withdraw() public onlyOwner {\n\n    function withdraw() public  {\n        uint256 balance = address(this).balance;\n        beneficiary.transfer(balance);\n        emit Withdraw(balance);\n    }\n\n    function () external payable {\n        totalDonations = totalDonations.add(msg.value);\n        donationsCount++;\n    }\n\n}\n",
  "sourcePath": "/home/ubuntu/funds/contracts/Fundraiser.sol",
  "compiler": {
    "name": "solc",
    "version": "0.5.16+commit.9c3226ce.Emscripten.clang"
  },
  "schemaVersion": "3.2.3",
  "updatedAt": "2023-01-06T01:58:19.865Z",
  "devdoc": {
    "methods": {}
  },
  "userdoc": {
    "methods": {}
  }
}